:1000000000800020B1010000DD010000DD010000E2
:10001000DD010000DD010000DD010000DD01000068
:10002000DD010000DD010000DD010000DD01000058
:10003000DD010000DD010000DD010000DD01000048
:100040004D120000DD010000DD010000DD010000B7
:10005000DD010000DD010000DD010000DD01000028
:10006000DD010000DD010000DD010000DD01000018
:10007000DD010000DD010000DD010000DD01000008
:10008000DD010000DD010000DD010000DD010000F8
:10009000DD010000DD010000DD010000DD010000E8
:1000A000DD010000DD010000A91D0000DD010000F0
:1000B000DD010000DD010000DD010000DD010000C8
:1000C000DD010000DD010000DD010000DD010000B8
:1000D000DD010000DD010000DD010000DD010000A8
:1000E00010B5054C237833B9044B13B10448AFF372
:1000F00000800123237010BD7C0000200000000060
:1001000074230000084B10B51BB108480849AFF331
:1001100000800848036803B910BD074B002BFBD0D3
:10012000BDE81040184700BF000000007423000025
:10013000800000207800002000000000154B002BFC
:1001400008BF134B9D46A3F5803A00218B460F460E
:100150001348144A121A02F0F1F80F4B002B00D08A
:1001600098470E4B002B00D0984700200021040038
:100170000D000D48002802D00C48AFF3008002F0BB
:10018000B7F82000290001F055FE02F09DF800BFED
:1001900000000800008000200000000000000000B7
:1001A0007C000020A40000200000000000000000EF
:1001B000064880470649074A074B9A42BEBF51F896
:1001C000040B42F8040BF8E7FFF7B8FF5D030000EB
:1001D00080230000000000207C000020FEE700BF1C
:1001E00080B400AF044BDB6C1B0EDBB21846BD467F
:1001F0005DF8047B704700BFB081E00F80B582B02E
:1002000000AF00F01FF87860074B5B6803F00F0346
:100210001A467B68D3407B60044A7B6813607B6826
:1002200018460837BD4680BD00800C40A000002065
:1002300080B400AF024B1846BD465DF8047B7047A2
:10024000006CDC0280B582B000AF334BDB6A03F494
:100250007053B3F5805F0AD0B3F5005F03D0B3F5F8
:10026000006F08D00BE02D4B1B687B6047E04FF41C
:1002700000437B6043E02A4B1B687B603FE0264BDA
:10028000DB6803F4E063B3F5007F1BD0B3F5007FB8
:1002900005D8002B24D0B3F5807F16D02BE0B3F522
:1002A000806F09D0B3F5A06F03D0B3F5407F06D0BF
:1002B00021E01C4B7B6021E01B4B7B601EE01B4B55
:1002C0007B601BE01A4B7B6018E0FFF789FF034659
:1002D000122B02D9174B7B6010E0174B7B600DE0AF
:1002E000FFF77EFF0346122B02D9144B7B6005E01B
:1002F000134B7B6002E000237B6000BF00BF064B16
:100300001B6803F4E0339B0B01337A68B2FBF3F311
:1003100018460837BD4680BD00800C400400002010
:1003200000000020003FAB01406F4001809FD500DE
:10033000C0D8A70040B56400C0CF6A00804F12004B
:1003400040420F0080B400AF034B1B681846BD4607
:100350005DF8047B704700BF0000002080B400AF50
:10036000BD465DF8047B704780B400AF4FF4004396
:100370001846BD465DF8047B704700BF80B400AFEF
:100380004FF47A731846BD465DF8047B704700BF92
:1003900080B400AF034B1B681846BD465DF8047B74
:1003A000704700BF0400002080B487B000AFF86041
:1003B000B9607A60FB6803F10473DA00BB68134428
:1003C0009B007B617B697A681A601C37BD465DF8CB
:1003D000047B704780B485B000AF786039607B687B
:1003E00003F10473DA003B6813449B00FB60FB6875
:1003F0001B6818461437BD465DF8047B704700BF84
:1004000080B485B000AF78607B68002B04D07B6837
:10041000B3F5004F00D800BF7B68B3FA83F3C3F194
:100420001F03FB60FB6818461437BD465DF8047B6C
:10043000704700BF80B400AF044BDB6C1B0EDBB217
:100440001846BD465DF8047B704700BFB081E00FE1
:1004500080B400AF054BDB6C03F47F031B0CDBB2F5
:100460001846BD465DF8047B704700BFB081E00FC1
:1004700080B582B000AFFFF7EBFF03464A2B04D0F4
:10048000792B02D0482B21D022E0144B1B699BB260
:1004900003F03F039BB21B02FB80104B9B6903F0F0
:1004A000F0039AB2FB881343FB800C4BDB6903F02B
:1004B000F0031B099AB2FB881343FB80FB88B3F55A
:1004C000017F01D3064B04E0064B02E0054B00E040
:1004D000002318460837BD4680BD00BFD0FF0FE09F
:1004E00000366E010048E80180B584B000AF786046
:1004F00039607A683B689A428CBF01230023DBB2E3
:10050000FB6006481E21FA68FFF74EFF04480821E9
:10051000FA68FFF749FF1037BD4680BD00800C40E8
:1005200004800C4080B582B000AF07481E21FFF761
:1005300051FF786005480821FFF74CFF38607B6861
:1005400018460837BD4680BD00800C4004800C4032
:1005500080B582B000AF214B5B6903F4E063B3F573
:10056000007F1CD0B3F5007F05D8002B25D0B3F554
:10057000807F1FD02AE0B3F5C06F24D0B3F5E06FC1
:100580001ED0B3F5407F21D1FFF754FF0346122B55
:1005900002D9134B7B601CE0124B7B6019E0FFF724
:1005A00049FF0346122B02D90F4B7B6011E00F4B22
:1005B0007B600EE00E4B7B600BE00E4B7B6008E037
:1005C0000D4B7B6005E00D4B7B6002E000237B6000
:1005D00000BF7B6818460837BD4680BD00800C40D0
:1005E000804F120040420F0040B56400C0CF6A0047
:1005F000C0D8A700809FD500406F4001003FAB01ED
:1006000080B582B000AF0D4800F0A6FB0346FB703A
:10061000FB78072B05D0082B07D1FFF713FE786076
:1006200006E0FFF795FF786002E000237B6000BFE3
:100630007B6818460837BD4680BD00BF06000C0029
:1006400080B485B000AF7860284BDB6B002B14BF03
:1006500001230023BB72254B41F67132DA63234B31
:100660005B6803F00703FB60FB68012B01D9042BD7
:1006700002D10023FB7202E00123FB7200BF7B6802
:100680001B4A934207D9FB7A002B01D0052300E0D7
:100690000423FB6016E07B68154A93420BD87B6805
:1006A000144A934207D9FB7A002B01D0032300E0C0
:1006B0000123FB6006E0FB7A002B01D0022300E05F
:1006C0000023FB600949094B5B6823F00702FB68C4
:1006D00013434B60BB7A002B02D0044B0022DA6339
:1006E0001437BD465DF8047B704700BF00000C4026
:1006F0000048E8010024F40080B500AFFFF798FD42
:1007000003461846FFF79CFF80BD00BF90B585B03B
:1007100000AF78600023BB607B68344A934203D00B
:10072000334A934200D000E000BF786800F014FB29
:100730000346FB607B682D4A934203D02C4A9342C8
:1007400006D00CE02B4B9B6A03F00303FB6006E032
:10075000284B9B6A03F00C039B08FB6000BFFB68FF
:10076000032B3AD801A252F823F000BFA3070000E0
:100770007D070000850700008D070000FFF7F4FDEE
:10078000B8602DE0FFF704FEB86029E0FFF736FD02
:100790000446FFF7C7FE0346013324FA03F3BB60A8
:1007A0001EE00023BB607B68104A934203D07B6845
:1007B0000F4A934210D10F4B9A6A7B680B498B42C8
:1007C00001D1102300E0142322FA03F3002B03D0FD
:1007D000FFF7D4FDB86003E002E00023BB6000BF78
:1007E000BB6818461437BD4690BD00BF02001A0012
:1007F00003001C0000800C4080B483B000AF786020
:10080000094B5B6D03F00103002B00D006E000BF35
:10081000054B1A6D7B681340002BF9D10C37BD4690
:100820005DF8047B704700BF00800C4080B582B04B
:1008300000AF104800F090FA0346FB70FB78032BE2
:1008400007D0082B09D0022B0BD1FFF7A1FD786050
:100850000AE0FFF789FD786006E0FFF7F3FC7860B7
:1008600002E000237B6000BF7B6818460837BD4666
:1008700080BD00BF07232200B0B584B000AF786010
:1008800039607B681B0903F00F03FB60FB68013BC9
:10089000062B00F2F68001A252F823F0B9080000FE
:1008A000830A0000830A0000ED0800001709000019
:1008B0006B0900002F0A00003B68002B03D03B6847
:1008C000082B00D800BFFFF717FF70496F4B1B685C
:1008D00023F4E0323B68013B9B0313430B60FFF7BB
:1008E0008DFCB860B868FFF7ABFECBE03B68002B2F
:1008F00004D03B68B3F5007F00D800BF3868FFF72D
:100900007FFD38606149614B9B6823F00F023B68B3
:1009100013438B60B6E03B68002B04D03B68B3F513
:10092000007F00D800BFFFF7E7FEFFF78BFC024611
:100930003B68B2FBF3F4FFF79BFD034620461946E4
:10094000FFF7D2FD3868FFF75BFD38604F494F4B2A
:100950005B6823F00F023B6813434B60FFF74EFCCC
:10096000B860B868FFF76CFE8CE07B68484A934239
:100970001ED0474A934203D8464A934207D055E0D7
:10098000454A934225D0454A93423FD04EE0042049
:10099000FFF732FF3868FFF733FD38603B493B4BC8
:1009A0009B6E23F0F0023B681B0113438B663DE016
:1009B0000420FFF721FF3868FFF722FD3860334934
:1009C000324B9B6E23F470623B681B0213438B66B1
:1009D0002CE03B680F2B03D93B68802B00D800BF6D
:1009E0000420FFF709FF3868FFF70AFD3860274D3C
:1009F000264B9B6E23F440541020FFF701FD024666
:100A00003B689B1A1B032343AB660FE00420FFF7F0
:100A1000F3FE3868FFF7F4FC38601C491B4B9B6EF3
:100A200023F003023B6813438B6600BF2AE07B6818
:100A30001B4A934203D01B4A934210D020E040202F
:100A4000FFF7DAFE3868FFF7DBFC38600F490F4B21
:100A50001B6F23F003023B6813430B6710E0402039
:100A6000FFF7CAFE3868FFF7CBFC38600749074B31
:100A70001B6F23F030023B681B0113430B6700BF61
:100A800000E000BF1037BD46B0BD00BF00800C4085
:100A900060261400601610006000260060062A0020
:100AA000700716007017180090B587B000AF786017
:100AB0000B46FB7000233B617B681B0A03F00F03AE
:100AC000013B092B49D801A252F823F0110B000079
:100AD000170B0000F50A00005B0B00005B0B000029
:100AE0001D0B0000270B00005B0B00005B0B0000E0
:100AF000310B00001B4B7B611B4800F041F80446A2
:100B0000FFF7B6FC034620461946FFF7EDFC12E05E
:100B1000164B7B610FE0164B7B610CE0154B7B6144
:100B200001233B6107E0144B7B6110233B6102E032
:100B3000124B7B6100BF7B681B0B03F01F03FB6044
:100B40003B69002B02D03869FFF756FEFB787869C5
:100B5000F9681A46FFF728FC00E000BF1C37BD46C5
:100B600090BD00BF40800C400043020008800C4054
:100B700044800C4058800C4060800C4078800C40D1
:100B800090B585B000AF78607B6803F47813B3F557
:100B9000B01F00F0AB80B3F5B01F1AD8B3F5402FEB
:100BA00000F0BF80B3F5402F08D8B3F5003F3CD02C
:100BB000B3F5802F2DD0002B27D0BEE0B3F5801FDA
:100BC0003CD0B3F5A01F47D0B3F5602F00F0AD8047
:100BD000B3E0B3F5081F00F0AC80B3F5081F0AD8E6
:100BE000B3F5D01F25D0B3F5E01F7AD0B3F5C01F01
:100BF00000F08980A1E0B3F5201F4ED0B3F5281F87
:100C000062D0B3F5181F35D097E0FFF71BFBF860F3
:100C100096E0FFF717FBF8604C4B9B6803F00F035F
:100C20001A46FB68D340FB608AE0FFF7E7FAF860FA
:100C300086E04748FFF76AFDF86081E04448FFF727
:100C400065FDF860414B9B6E03F0F0031B091A46EB
:100C5000FB68D340FB6073E03D48FFF757FDF86049
:100C60003A4B9B6E03F470631B0A1A46FB68D34031
:100C7000FB6065E03648FFF749FDF860334B9B6E3B
:100C800003F440531C0B1020FFF7BAFB0346234428
:100C90001A46FB68D340FB6052E02D48FFF736FD53
:100CA000F8602A4B9B6E03F440531B0B1A46FB68FB
:100CB000D340FB60254BDB6F03F007030133FA6879
:100CC000B2FBF3F3FB603BE02148FFF71FFDF86048
:100CD0001E4B9B6E03F003031A46FB68D340FB6078
:100CE0002EE01C48FFF712FDF86029E01948FFF7D5
:100CF0000DFDF860154B1B6F03F003031A46FB68EC
:100D0000D340FB601CE01348FFF700FDF8600F4B79
:100D10001B6F03F030031B091A46FB68D340FB60CE
:100D20000EE0FFF76DFCF8600AE0FFF711FCF860D9
:100D300006E0FFF77BFDF86002E00023FB6000BFE8
:100D4000FB6818461437BD4690BD00BF00800C40BC
:100D500002001A0003001C0080B485B000AF786068
:100D60000123FB737B6803F00F03BB60BB68013B8F
:100D7000062B00F2938001A252F823F0990D000097
:100D8000CF0D00000B0E00009D0E00009D0E000018
:100D9000470E0000690E0000454BDB6A03F47053F8
:100DA000B3F5805F09D0B3F5005F03D0B3F5006FF2
:100DB00006D008E00223FB7308E00323FB7305E081
:100DC0000423FB7302E00523FB7300BF69E0384B8B
:100DD0009B6A03F00303022B06D0032B07D0012BE1
:100DE00008D10323FB730FE00223FB730CE00623FF
:100DF000FB7309E02E4B9B6A03F48033002B02D077
:100E00000923FB7300E000BF4BE0294B9B6A03F012
:100E10000C03082B06D00C2B07D0042B08D103237E
:100E2000FB730FE00223FB730CE00623FB7309E066
:100E30001F4B9B6A03F48013002B02D00923FB7322
:100E400000E000BF2DE01A4B1B6803F08053002B1D
:100E500003D0B3F1805F03D023E00723FB7302E0EC
:100E60000823FB7300BF1CE0114BDB6A03F4603303
:100E7000B3F5803F08D0B3F5003F08D0B3F5004F7D
:100E800008D10823FB7308E00223FB7305E003236A
:100E9000FB7302E00123FB7300BF02E00023FB733E
:100EA00000BFFB7B18461437BD465DF8047B7047D6
:100EB00000800C4090B589B000AF78600B46FB70A5
:100EC0000323FB610323FB7600233B617B6803F074
:100ED0000F03FB60FB68013B062B00F2348101A28B
:100EE00052F823F0010F0000ED0F0000ED0F00009D
:100EF0004711000047110000B5100000DF1000008E
:100F0000FB78023B072B00F2228101A252F823F06A
:100F1000310F00003B0F0000450F00008F0F000055
:100F20004F1100004F1100004F1100004F11000041
:100F30000423FB610023FB7639E00323FB610123DB
:100F4000FB7634E00223FB610223FB76FFF790FA85
:100F500003465C1CFFF78CFA034620461946FFF750
:100F6000C3FAFFF7EFF902467C4B9A4206D97C4A56
:100F70007B4B1B6843F06003136018E0784A784BA2
:100F80001B6823F0600343F0200313600FE001238C
:100F9000FB610323FB76FFF76BFA03465C1CFFF74C
:100FA00067FA034620461946FFF79EFA00BFFB7E0C
:100FB00018460121012200F0D9F8FFF79DFB684A8D
:100FC000FB6953626748FFF7DBFD0446FFF750FA01
:100FD000034620461946FFF787FA00F019FBFFF792
:100FE0000DF9B860B868FFF72BFBADE0FB78013B6B
:100FF000082B00F2AE8001A252F823F0211000006D
:10100000271000003710000053110000531100009A
:101010004710000053110000531100006B10000036
:1010200000237B6126E000200121012200F09EF8D0
:1010300002237B611EE001200121012200F096F8CD
:1010400001237B6116E0FFF7D9F8B860FFF710FACB
:101050000346B8681946FFF747FA434804210122BE
:10106000FFF7A2F903237B6104E000237B610123E6
:101070003B6100BFFB68022B0DD13949384B9B6A9D
:1010800023F4803323F003037A691A433B691B047A
:1010900013438B6258E03249314B9B6A23F480132F
:1010A00023F00C037A6992001A433B691B05134332
:1010B0008B6249E0FB78072B02D0082B07D049E070
:1010C000274A274B1B6823F08053136006E0244A0D
:1010D000234B1B6843F08053136000BF34E0FB7860
:1010E000032B14D0082B22D0022B00D032E000209A
:1010F0000121012200F03AF8194B40225A6200BF48
:10110000174BDB6A03F48033002BF9D01AE001207F
:101110000121012200F02AF8114B60225A6200BF1F
:101120000F4BDB6A03F40033002BF9D00AE00C4BC1
:1011300020225A6200BF0A4BDB6A03F40043002BF3
:10114000F9D000BF00E000BFFFF7ECF902E000BFFC
:1011500000E000BF2437BD4690BD00BF0048E80155
:1011600000800C400043020040800C4080B586B0F7
:1011700000AF0346FB710B46BB7113467B71FB79D5
:10118000042B4AD801A252F823F000BFD911000065
:10119000CB110000AF110000A1110000BD11000033
:1011A00001233B610223FB6001237B611DE00423DB
:1011B0003B610823FB6003237B6116E010233B6146
:1011C0002023FB6005237B610FE040233B618023EC
:1011D000FB6007237B6108E04FF480733B614FF4B1
:1011E0000073FB6009237B6100BFBB79002B0ED02D
:1011F0000C4A3B6913627B79002B0BD000BF0A4875
:101200007969FFF7E7F80346002BF8D002E0054ABA
:10121000FB68136200F0FCF900E000BF1837BD4620
:1012200080BD00BF00800C402C800C4080B400AF1B
:1012300072B6BD465DF8047B704700BF80B400AF56
:1012400062B6BD465DF8047B704700BF80B58AB0CA
:1012500000AF334B03F580531B68BB61304B03F584
:1012600080530C331B68BA691340BB612C4B9B6BDA
:101270007B61BA697B6913403B620023FB6149E0F3
:1012800000237B623BE03B6A03F00103002B30D07C
:10129000234B9B683B6101227B6A02FA03F3FB60EC
:1012A0001F4B03F580530833FA681A607B6A1B01F1
:1012B0003A691344DB68BB60BB68002B19D0BB687C
:1012C0001B7A7B60BB681B7A83F00103DAB2BB68D0
:1012D0001A72BB681B68002B0BD0BB681B68786A4E
:1012E0007A68002A14BF01220022D1B2BA6852687B
:1012F00098473B6A5B083B627B6A01337B623B6ACF
:10130000002BC0D17B69DA43BB6913403B62FB69A8
:101310000133FB61FB69012BB2DD2837BD4680BD7F
:1013200000200C4080B500AFFEF768FF80BD00BF15
:1013300080B400AF034B0022C3F88420BD465DF8A3
:10134000047B704700800C4080B400AF044B45F62E
:101350000E02C3F88420BD465DF8047B704700BFD1
:1013600000800C4080B582B000AF384BD3F8843099
:1013700003F001037B60FFF7E7FF00233B60344B82
:101380001B6803F001033A6813433B60304B1B6852
:1013900003F010033A6813433B602D4B1B6803F0C6
:1013A00040033A6813433B60294B1B6803F0040376
:1013B0003A6813433B60264B1B6803F480733A681A
:1013C00013433B60214A3B681362214B1B6803F4C3
:1013D0007053B3F5805F06D0B3F5005F0ED0B3F560
:1013E000006F16D020E000BF184BDB6A03F08003CB
:1013F000002BF9D0154B03225A6215E000BF134BA6
:10140000DB6A03F40073002BF9D0104B04225A62FC
:101410000AE000BF0D4BDB6A03F00803002BF9D094
:101420000A4B02225A6200BF094B1B6803F00103FA
:10143000002B02D1054B02221A627B68002B01D0DF
:10144000FFF776FF0837BD4680BD00BF00800C4027
:101450009800002080B483B000AF164B1B699BB28C
:1014600003F03F039BB21B02FB80124B9B6903F00E
:10147000F0039AB2FB881343FB800E4BDB6903F049
:10148000F0031B099AB2FB881343FB80FB88B3F57A
:10149000827F03D3FB88B3F5017F01D1012300E0F4
:1014A000002303F00103DBB218460C37BD465DF89C
:1014B000047B7047D0FF0FE080B586B000AF0346D5
:1014C000FB711F4BDB6A1F4A13601F4A1E4B1B69CF
:1014D00043F004031361FFF7BDFF0346FB75FB7D7B
:1014E000002B11D0194B1A68194B1340FB60174A97
:1014F000FB68C2F88030154B5B6823F046033B6104
:10150000124A3B69C2F8843030BFFB7D002B05D006
:101510000E4AFB6813600D4A3B695360FB79002B50
:1015200002D0FFF71FFF07E0064B1B6803F4806340
:10153000002B01D1FFF7F6FE1837BD4680BD00BF76
:1015400000800C409800002000ED00E000E100E089
:101550009CF1FD0080B586B000AF0346FB71274BC0
:10156000DB6A274A1360254BD3F8843003F001036C
:101570007B61FFF7E9FE214B4FF420721A627B6911
:10158000002B01D0FFF7D4FE1E4A1E4B1B6943F00F
:1015900004031361FFF75EFF0346FB74FB7C002B23
:1015A00011D0194B1A68194B1340BB60164ABB681F
:1015B000C2F88030144B5B6823F04603FB60124A8C
:1015C000FB68C2F8843030BFFB7C002B05D00E4A8C
:1015D000BB6813600C4AFB685360FB79002B02D098
:1015E000FFF7C0FE07E0064B1B6803F48063002B87
:1015F00001D1FFF797FE1837BD4680BD00800C4033
:101600009800002000ED00E000E100E09CF1FD000A
:1016100080B400AF034BDB6A034A1360BD465DF83C
:10162000047B704700800C409800002080B483B099
:1016300000AF03463960FB71FB79002B0DD0FB79BD
:10164000012B0AD0FB79022B07D0FB79032B04D0A6
:10165000FB79042B01D0FB79052B0949FA793B680A
:10166000012000FA03F318461346DB0013449B00E5
:101670000B44103358600C37BD465DF8047B70474F
:101680000060004080B483B000AF03463960FB7156
:10169000FB79002B0DD0FB79012B0AD0FB79022BB3
:1016A00007D0FB79032B04D0FB79042B01D0FB7905
:1016B000052B0949FA793B68012000FA03F3184623
:1016C0001346DB0013449B000B44103318600C37A7
:1016D000BD465DF8047B70470060004090B585B062
:1016E00000AFB9607B600346FB731346BB73FB7BA3
:1016F000002B0DD0FB7B012B0AD0FB7B022B07D0EC
:10170000FB7B032B04D0FB7B042B01D0FB7B052B45
:10171000BB7B002B0DD07B68002B05D0FB7B1846D4
:10172000B968FFF7AFFF04E0FB7B1846B968FFF725
:101730007DFFBB68072B1CD82A4CFA7B2948F97B14
:101740000B46DB000B449B0003445B68B9688900CF
:1017500008460F218140C9430B40B97BB86880001F
:10176000814019431346DB0013449B002344596016
:1017700024E01C4CFA7B1B48F97B0B46DB000B4436
:101780009B00034408331968BB6803F18043083B9E
:101790009B0018460F238340DB431940B87BBB688E
:1017A00003F18043083B9B0000FA03F319431346FF
:1017B000DB0013449B00234408331960BB7B002BE0
:1017C0000DD17B68002B05D0FB7B1846B968FFF76D
:1017D00059FF04E0FB7B1846B968FFF727FF143771
:1017E000BD4690BD0060004080B487B000AFF86097
:1017F000B9607A60FB68114A934208D1BB68012B3B
:1018000005D87B681B0C1B04002B00D100BFBB68F4
:10181000002B02D0012B04D00AE0FB6810337B615F
:1018200003E0FB6814337B6100BF7B697A681A6050
:101830001C37BD465DF8047B704700BF00200840A0
:1018400080B483B000AF78600B46FB70FB78002B50
:1018500003D07B6801225A6002E07B6802225A6052
:101860000C37BD465DF8047B704700BF80B485B07F
:1018700000AF786039600023FB603B681B7883F021
:101880000103DBB2002B08D07B689B6803F00103E7
:10189000002B02D07B6802225A603B685B78002BE9
:1018A00003D0FB6843F48053FB603B689B78002BBC
:1018B00003D0FB6843F48063FB603B68DB78002B5C
:1018C00003D0FB6843F40063FB603B681B79002B8B
:1018D00003D0FB6843F40073FB603B685B79002B2B
:1018E00003D0FB6843F48073FB603B689B79002B5B
:1018F00003D0FB6843F04003FB603B68DB79002BBF
:1019000003D0FB6843F08003FB603B681B7A9B00BD
:101910001A46FB681343FB603B685B7A1B011A465F
:10192000FB681343FB603B689B7A1A46FB681343D2
:10193000FB607B68FA681A603B681B78002B08D054
:101940007B689B6803F00103002B02D17B680122B6
:101950005A601437BD465DF8047B704780B485B08B
:1019600000AF7860194B5B69DBB203F00F03DBB2A9
:101970009B00FB73154B1B6903F0C0039B09DAB294
:10198000FB7B1343FB737B68FA7B9A700F4B1B69DD
:10199000DBB203F03F03DAB27B685A700B4B9B69F2
:1019A000DBB223F00F03FB73084BDB6903F0F0039A
:1019B0001B09DAB2FB7B1343FB737B68FA7B1A705B
:1019C0001437BD465DF8047B704700BFD0FF0FE0C1
:1019D00080B500AF08480221FFF76CFA07480121E3
:1019E000FFF762F806480121FFF75EF8054801217C
:1019F000FFF75AF880BD00BF02001A000043020042
:101A00006026140000D2040080B483B000AF034607
:101A1000FB71084997F907305B09FA7902F01F0258
:101A2000012000FA02F241F823200C37BD465DF890
:101A3000047B704700E100E080B483B000AF7860C1
:101A400039607B683A689A620C37BD465DF8047B62
:101A5000704700BF80B483B000AF786039607B68A6
:101A6000DA6A3B681A437B68DA620C37BD465DF878
:101A7000047B704780B584B000AF78600223FB60C0
:101A80000123BB6005E0BB685B00BB60FB685B00DB
:101A9000FB60F86800F01AFB02460B461046194638
:101AA0004FF00002074B00F0E7FB0346002B03D08A
:101AB000BB68B3F5004FE6D3BB6818461037BD4688
:101AC00080BD00BF0000F03F80B584B000AF0120B2
:101AD000FFF7D0FFF8602648F968FEF7CDFE254BEA
:101AE0001A68FB68B2FBF3F3224A1360224B1A68B0
:101AF000FB68B2FBF3F3204A136000233B70002322
:101B00007B700023BB700023FB7001233B7100231B
:101B10007B710023BB710023FB7100233B72002308
:101B20007B720023BB723B4614481946FFF79EFEAA
:101B3000104B1B68114800211A46FFF755FE0E4B4B
:101B40001B680E4801211A46FFF74EFE0B481F2165
:101B5000FFF772FF09480121FFF77CFF07480221C8
:101B6000FFF778FF1A20FFF74FFF1037BD4680BD03
:101B700060261400080000200C000020002008400F
:101B800080B483B000AF03463960FB71FB79002B52
:101B90000DD0FB79012B0AD0FB79022B07D0FB7902
:101BA000032B04D0FB79042B01D0FB79052B0949C9
:101BB000FA793B68012000FA03F318461346DB006C
:101BC00013449B000B44103358600C37BD465DF83E
:101BD000047B70470060004080B483B000AF0346D0
:101BE0003960FB71FB79002B0DD0FB79012B0AD0FA
:101BF000FB79022B07D0FB79032B04D0FB79042B54
:101C000001D0FB79052B0949FA793B68012000FADC
:101C100003F318461346DB0013449B000B441033B8
:101C200018600C37BD465DF8047B704700600040CB
:101C300080B500AF0420022104220023FFF74EFDEF
:101C40000420032104220023FFF748FD80BD00BFCC
:101C500080B582B000AF0346FB71FB79012B0CD835
:101C6000FB79074A12F81310FB79054A5B0013440D
:101C70005B7808461946FFF783FF0837BD4680BDED
:101C80006823000080B582B000AF0346FB71FB798A
:101C9000012B0CD8FB79074A12F81310FB79054A7F
:101CA0005B0013445B7808461946FFF795FF083739
:101CB000BD4680BD6823000080B400AF054A054BD7
:101CC0001B6923F00403136130BFBD465DF8047B3C
:101CD000704700BF00ED00E080B582B000AF7860D3
:101CE000FFF7A4FA074A7B6813441B780133D9B283
:101CF000044A7B6813440A461A70FFF79FFA0837B4
:101D0000BD4680BD9C00002080B500AF0F4B1B7806
:101D1000002B00D019E00D4B5B78002B02D0FFF7B1
:101D2000CBFF12E0094B9B78002B03D00120FFF77B
:101D3000C3FB0AE0054BDB78002B03D00120FFF743
:101D400009FC02E00120FFF705FC80BD9C0000209B
:101D500080B483B000AF786039607B683A689A627B
:101D60000C37BD465DF8047B704700BF80B483B07C
:101D700000AF78607B681B6A18460C37BD465DF87B
:101D8000047B704780B500AFFFF722FEFFF79CFE93
:101D9000FFF74EFF0220FFF79FFF02480121FFF7E8
:101DA0004FFD80BD0020084080B582B000AFFFF736
:101DB0003DFA0F48FFF7DAFF78600D487968FFF7C2
:101DC000C7FF7B6803F00103002B03D00020FFF75F
:101DD00059FF07E07B6803F00203002B02D00020CC
:101DE000FFF736FFFFF72AFA0837BD4680BD00BF70
:101DF0000020084080B582B000AF0C4B1B687B60B0
:101E00003B461846FFF7AAFD7B681B0E0F2B0AD92D
:101E10003B78032B07D1064A054B1B6823F0500380
:101E200043F0100313600837BD4680BDFC81E00F0E
:101E3000C0800C4080B500AFFFF7DCFFFFF7A2FFCA
:101E4000FFF762FFFCE700BF81F0004102E000BF46
:101E500083F0004330B54FEA41044FEA430594EA6A
:101E6000050F08BF90EA020F1FBF54EA000C55EAA5
:101E7000020C7FEA645C7FEA655C00F0E2804FEA76
:101E80005454D4EB5555B8BF6D420CDD2C4480EA58
:101E9000020281EA030382EA000083EA010180EA88
:101EA000020281EA0303362D88BF30BD11F0004FD6
:101EB0004FEA01314FF4801C4CEA113102D040420C
:101EC00061EB410113F0004F4FEA03334CEA133347
:101ED00002D0524263EB430394EA050F00F0A7805F
:101EE000A4F10104D5F1200E0DDB02FA0EFC22FA5A
:101EF00005F2801841F1000103FA0EF2801843FA4E
:101F000005F359410EE0A5F120050EF1200E012A3E
:101F100003FA0EFC28BF4CF0020C43FA05F3C0187C
:101F200051EBE37101F0004507D54FF0000EDCF1F5
:101F3000000C7EEB00006EEB0101B1F5801F1BD39E
:101F4000B1F5001F0CD349085FEA30004FEA3C0CA2
:101F500004F101044FEA445212F5800F80F09A8098
:101F6000BCF1004F08BF5FEA500C50F1000041EB9C
:101F7000045141EA050130BD5FEA4C0C404141EBA0
:101F8000010111F4801FA4F10104E9D191F0000FC7
:101F900004BF01460020B1FA81F308BF2033A3F14A
:101FA0000B03B3F120020CDA0C3208DD02F1140C41
:101FB000C2F10C0201FA0CF021FA02F10CE002F17C
:101FC0001402D8BFC2F1200C01FA02F120FA0CFC75
:101FD000DCBF41EA0C019040E41AA2BF01EB0451BE
:101FE000294330BD6FEA04041F3C1CDA0C340EDCBC
:101FF00004F11404C4F1200220FA04F001FA02F3FF
:1020000040EA030021FA04F345EA030130BDC4F1BC
:102010000C04C4F1200220FA02F001FA04F340EAB1
:102020000300294630BD21FA04F0294630BD94F062
:10203000000F83F4801306BF81F480110134013D49
:102040004EE77FEA645C18BF7FEA655C29D094EABA
:10205000050F08BF90EA020F05D054EA000C04BF38
:102060001946104630BD91EA030F1EBF0021002023
:1020700030BD5FEA545C05D14000494128BF41F0C2
:10208000004130BD14F580043CBF01F5801130BD26
:1020900001F0004545F0FE4141F470014FF00000B1
:1020A00030BD7FEA645C1ABF194610467FEA655C62
:1020B0001CBF0B46024650EA013406BF52EA033504
:1020C00091EA030F41F4002130BD00BF90F0000FF2
:1020D00004BF0021704730B54FF4806404F132042E
:1020E0004FF000054FF0000150E700BF90F0000FE7
:1020F00004BF0021704730B54FF4806404F132040E
:1021000010F0004548BF40424FF000013EE700BFDD
:1021100042004FEAE2014FEA31014FEA02701FBF6D
:1021200012F07F4393F07F4F81F06051704792F03F
:10213000000F14BF93F07F4F704730B54FF46074B9
:1021400001F0004521F0004120E700BF50EA010204
:1021500008BF704730B54FF000050AE050EA0102B1
:1021600008BF704730B511F0004502D5404261EB21
:1021700041014FF4806404F132045FEA915C3FF462
:10218000DCAE4FF003025FEADC0C18BF03325FEAFB
:10219000DC0C18BF033202EBDC02C2F1200300FAB0
:1021A00003FC20FA02F001FA03FE40EA0E0021FAD5
:1021B00002F11444C1E600BF4FF0FF3C06E000BF4F
:1021C0004FF0010C02E000BF4FF0010C4DF804CDC0
:1021D0004FEA410C7FEA6C5C4FEA430C18BF7FEA80
:1021E0006C5C1BD001B050EA410C0CBF52EA430CAE
:1021F00091EA030F02BF90EA020F0020704710F12E
:10220000000F91EA030F58BF994208BF90422CBFBC
:10221000D8176FEAE37040F0010070474FEA410CB5
:102220007FEA6C5C02D150EA013C07D14FEA430CD3
:102230007FEA6C5CD6D152EA033CD3D05DF8040B44
:10224000704700BF8446104662468C461946634676
:1022500000E000BF01B5FFF7B7FF002848BF10F14D
:10226000000F01BD4DF808EDFFF7F4FF0CBF012092
:1022700000205DF808FB00BF4DF808EDFFF7EAFF0E
:1022800034BF012000205DF808FB00BF4DF808EDC9
:10229000FFF7E0FF94BF012000205DF808FB00BFBE
:1022A0004DF808EDFFF7CEFF94BF012000205DF848
:1022B00008FB00BF4DF808EDFFF7C4FF34BF012055
:1022C00000205DF808FB00BF08B5074B044613B1BA
:1022D0000021AFF30080054B1868836A03B198476B
:1022E000204600F033F800BF00000000702300001B
:1022F0000E4B70B51E460E4C0025E41AA410A542E4
:1023000004D056F8253098470135F8E700F020F85A
:10231000084B094C1E46E41AA4100025A54204D01F
:1023200056F8253098470135F8E770BD7000002059
:10233000700000207000002074000020034602445A
:10234000934202D003F8011BFAE77047FEE700BF93
:10235000F8B500BFF8BC08BC9E467047F8B500BF92
:10236000F8BC08BC9E46704704020403430000000A
:08237000100000200000000035
:08237800C4DDFF7F010000003D
:10238000006CDC020080000000800000B87E0000CD
:10239000000000000000000000000000000000003D
:1023A000000000000000000000000000000000002D
:1023B0006C2300000000000000000000000000008E
:1023C000000000000000000000000000000000000D
:1023D00000000000000000000000000000000000FD
:1023E00000000000000000000000000000000000ED
:0C23F00005010000E100000000000000FA
:04000003000001B147
:00000001FF
