:1000000000800020B1010000DD010000DD010000E2
:10001000DD010000DD010000DD010000DD01000068
:10002000DD010000DD010000DD010000DD01000058
:10003000DD010000DD010000DD010000DD01000048
:10004000CD200000DD010000DD010000DD01000029
:10005000DD010000DD010000DD010000DD01000028
:10006000DD010000DD010000DD0100008150000025
:10007000DD010000DD010000DD010000DD01000008
:10008000DD010000ED3C0000DD010000DD010000AD
:10009000DD010000DD010000DD010000DD010000E8
:1000A000DD010000DD0100002D570000DD01000032
:1000B000DD010000DD01000029090000DD01000074
:1000C000DD010000DD010000DD010000DD010000B8
:1000D000DD010000DD010000DD010000DD010000A8
:1000E00010B5054C237833B9044B13B10448AFF372
:1000F00000800123237010BD0001002000000000DB
:10010000846A0000084B10B51BB108480849AFF3DA
:1001100000800848036803B910BD074B002BFBD0D3
:10012000BDE81040184700BF00000000846A0000CE
:1001300004010020CC00002000000000154B002B23
:1001400008BF134B9D46A3F5803A00218B460F460E
:100150001348144A121A06F0E7FA0F4B002B00D08E
:1001600098470E4B002B00D0984700200021040038
:100170000D000D48002802D00C48AFF3008006F0B7
:10018000ADFA2000290005F019FB06F093FA00BF34
:1001900000000800008000200000000000000000B7
:1001A0000001002000060020000000000000000008
:1001B000064880470649074A074B9A42BEBF51F896
:1001C000040B42F8040BF8E7FFF7B8FF5D030000EB
:1001D000906A000000000020D0000020FEE700BF71
:1001E00080B400AF044BDB6C1B0EDBB21846BD467F
:1001F0005DF8047B704700BFB081E00F80B582B02E
:1002000000AF00F01FF87860074B5B6803F00F0346
:100210001A467B68D3407B60044A7B6813607B6826
:1002200018460837BD4680BD00800C4024020020DF
:1002300080B400AF024B1846BD465DF8047B7047A2
:10024000006CDC0280B582B000AF334BDB6A03F494
:100250007053B3F5805F0AD0B3F5005F03D0B3F5F8
:10026000006F08D00BE02D4B1B687B6047E04FF41C
:1002700000437B6043E02A4B1B687B603FE0264BDA
:10028000DB6803F4E063B3F5007F1BD0B3F5007FB8
:1002900005D8002B24D0B3F5807F16D02BE0B3F522
:1002A000806F09D0B3F5A06F03D0B3F5407F06D0BF
:1002B00021E01C4B7B6021E01B4B7B601EE01B4B55
:1002C0007B601BE01A4B7B6018E0FFF789FF034659
:1002D000122B02D9174B7B6010E0174B7B600DE0AF
:1002E000FFF77EFF0346122B02D9144B7B6005E01B
:1002F000134B7B6002E000237B6000BF00BF064B16
:100300001B6803F4E0339B0B01337A68B2FBF3F311
:1003100018460837BD4680BD00800C400400002010
:1003200000000020003FAB01406F4001809FD500DE
:10033000C0D8A70040B56400C0CF6A00804F12004B
:1003400040420F0080B400AF034B1B681846BD4607
:100350005DF8047B704700BF0000002080B400AF50
:10036000BD465DF8047B704780B400AF4FF4004396
:100370001846BD465DF8047B704700BF80B400AFEF
:100380004FF47A731846BD465DF8047B704700BF92
:1003900080B400AF034B1B681846BD465DF8047B74
:1003A000704700BF0400002080B483B000AF034654
:1003B000FB71084997F907305B09FA7902F01F02CF
:1003C000012000FA02F241F823200C37BD465DF807
:1003D000047B704700E100E080B483B000AF0346C7
:1003E000FB71094997F907305B09FA7902F01F029E
:1003F000012000FA02F2603341F823200C37BD4699
:100400005DF8047B704700BF00E100E080B400AFFE
:10041000034B5B681846BD465DF8047B704700BF20
:100420000000084080B483B000AF7860034A7B6866
:1004300093610C37BD465DF8047B704700000840AF
:1004400080B483B000AF78600549054BDA697B68FA
:10045000DB431340CB610C37BD465DF8047B70472E
:100460000000084080B483B000AF78600549054BB8
:10047000DA697B681343CB610C37BD465DF8047BBA
:10048000704700BF0000084080B483B000AF064B47
:10049000DB697B60044B1A697B68134018460C3794
:1004A000BD465DF8047B70470000084080B586B00B
:1004B00000AF786000237B6100233B6101F0FCFC0E
:1004C000F86002E07B6901337B617B69032B0ADC06
:1004D00016497A6913469B001344DB000B4418331A
:1004E0009B79002BEED17B69042B02D1104B3B6131
:1004F00014E07B68002B0FD00C497A6913469B00EF
:100500001344DB000B44183301229A717A697B682B
:100510001A6000233B6101E0064B3B61F86801F083
:10052000DBFC3B6918461837BD4680BD2001002022
:10053000011000F0041000F080B500AF1D4B1B78D7
:10054000002B01D0002332E01A4B01221A701A4806
:10055000012101F0DFF81948022101F0E1FA184801
:10056000082100F0BFFF1648012101F0D3F815481B
:1005700003F06AF90720FFF763FF0720FFF752FF38
:1005800003F08AF91E20FFF727FF1E20FFF70CFF5C
:100590000D480021A02206F0C7F80C4B00221A706B
:1005A0000B4B00221A700B4B00221A6000231846D6
:1005B00080BD00BFCA0100200043020002001A00F3
:1005C000601610008867000020010020C80100208C
:1005D000C9010020C4010020B0B58EB000AFF860A2
:1005E0007A603B600B46FB720023FB62FB68032BC7
:1005F00001D98D4B8BE101F05FFCB8628B49FA6841
:1006000013469B001344DB000B4418339B7983F0A3
:100610000103DBB2002B04D0B86A01F05DFC844B0F
:1006200075E17B68002B0BD13B68002B03D03B6846
:10063000F868B96C9847B86A01F04EFC002366E18F
:10064000FFF7E4FE38637949FA6813469B001344C8
:10065000DB000B4418333A681A607B681A464FF087
:100660000003DD0345EA5245D40314F57A6245F1EF
:100670000003104619464FF4FA524FF0000305F0FC
:1006800041FD02460B4610461946684CFA6813466F
:100690009B001344DB0023440833C3E90001FB7AC9
:1006A000012B27D17B684FF47A7202FB03F15F487C
:1006B000FA6813469B001344DB0003440833D3E974
:1006C0000023F42303FB02F3CB1A18465749FA68B8
:1006D00013469B001344DB000B441033186053494E
:1006E000FA6813469B001344DB000B4410337A2254
:1006F0005A6017E04D49FA6813469B001344DB002B
:100700000B440833D3E9002312F1FF3043F1FF31EA
:10071000464CFA6813469B001344DB00234408331D
:10072000C3E900014149FA6813469B001344DB000A
:100730000B440833D3E90023501C43F100013B4C28
:10074000FA6813469B001344DB002344C3E900010D
:100750003649FA6813469B001344DB000B441833F8
:1007600001221A713149FA6813469B001344DB00D9
:100770000B441833FA7ADA712C49FA6813469B0055
:100780001344DB000B442033BA6C1A60294B1B78EE
:10079000002B04D0B86A01F09FFB0023B7E0264B82
:1007A0001B68B3F1FF3F04D0234B1B680133224A7F
:1007B0001360224B1B7883F00103DBB2002B43D084
:1007C0003B6B23F07F431E4A13600220FFF72AFE93
:1007D0001649FA6813469B001344DB000B44D3E927
:1007E0000023C7E90823174BFB61FB6918464FF04C
:1007F0000001D7E908238B4208BF824201D210468C
:1008000019460346BB613A6BBB69134423F07F432F
:100810000020194602F0E2FF0220FFF723FE074BFB
:1008200001221A7066E000BF021000F020010020D3
:10083000031000F0C8010020C4010020C9010020FD
:10084000C00100209BFFFF00334B1B68012B51D1DF
:100850003249FA6813469B001344DB000B441833FB
:1008600000221A710220FFF7EBFD3B6B1A022C4BA2
:100870001B681B02D31A1B0A7B637B6B6FF07F42E2
:10088000934201D100237B63786B00F0A7F800F05E
:10089000F9F9FB6A002B09D12049FA6813469B003D
:1008A0001344DB000B44183301221A71FB6A013335
:1008B000FB62386B00F018FAFFF7A8FD38633B6B5A
:1008C0001A02174B1B681B02D31A1B0A7B630020FA
:1008D00002F066FF03461A02114B1B681B02D31A73
:1008E0001B0A7B610F4B1B78002B03D07A6B7B6953
:1008F0009A42B7D8084B1B68002B04D0064B1B68E4
:10090000013B054A1360B86A01F0E6FA0023184675
:100910003837BD46B0BD00BFC40100202001002013
:10092000C0010020C901002080B586B000AF01F0F1
:10093000C3FA3861FFF7A8FDF860FB6823F00303F2
:100940001846FFF76FFDFB6803F00203002B39D058
:100950001F4B01221A70FFF759FD78610220FFF743
:100960006FFD7B691A021B4B1B681B02D31A1B0A03
:10097000BB60B86800F032F800F084F9786900F0E4
:10098000B3F9FFF743FD78617B691A02114B1B68CD
:100990001B02D31A1B0ABB60002002F001FF0346B2
:1009A0001A020C4B1B681B02D31A1B0A7B600A4BF2
:1009B0001B78002B03D0BA687B689A42CED8044BD0
:1009C00000221A70386901F087FA1837BD4680BDD9
:1009D000C8010020C0010020C901002090B484B0EB
:1009E00000AF78600023FB6041E1A549FA68134637
:1009F0009B001344DB000B44183300225A71A049BA
:100A0000FA6813469B001344DB000B4418331B7930
:100A1000002B00F029819A49FA6813469B00134481
:100A2000DB000B44D3E90023796808464FF000014E
:100A3000994208BF904219D29149FA6813469B0027
:100A40001344DB000B44D3E900017B681A464FF0E6
:100A50000003801A61EB0301894CFA6813469B007E
:100A60001344DB002344C3E90001FDE08449FA6834
:100A700013469B001344DB000B441833DB79002B37
:100A80000AD17F49FA6813469B001344DB000B44EC
:100A9000183300221A71D2E07949FA6813469B0094
:100AA0001344DB000B440833D3E900017B681A468A
:100AB0004FF00003801A61EB0301714CFA68134692
:100AC0009B001344DB002344D3E90023801841EB4F
:100AD00003016B4CFA6813469B001344DB0023446C
:100AE000C3E900016649FA6813469B001344DB0022
:100AF0000B4410331B68002B50DD6149FA68134624
:100B00009B001344DB000B44103359685C48FA68BF
:100B100013469B001344DB00034410331B68194445
:100B20005748FA6813469B001344DB000344103314
:100B300059605349FA6813469B001344DB000B4489
:100B400010335B68F32B7AD94D49FA6813469B0042
:100B50001344DB000B44D3E90023501C43F1000194
:100B6000474CFA6813469B001344DB002344C3E957
:100B700000014349FA6813469B001344DB000B4411
:100B800010335B68A3F1F4013D48FA6813469B00FB
:100B90001344DB0003441033596050E03849FA68CD
:100BA00013469B001344DB000B4410335968344850
:100BB000FA6813469B001344DB00034410331B68A0
:100BC000C91A2F48FA6813469B001344DB000344FC
:100BD000103359602A49FA6813469B001344DB001E
:100BE0000B4410335B68F32B29D92549FA68134667
:100BF0009B001344DB000B44D3E9002312F1FF30C8
:100C000043F1FF311E4CFA6813469B001344DB008E
:100C10002344C3E900011A49FA6813469B001344B0
:100C2000DB000B4410335B68A3F1F4011448FA684D
:100C300013469B001344DB000344103359601049F2
:100C4000FA6813469B001344DB000B4418331B68FF
:100C5000002B09D00A49FA6813469B001344DB00B5
:100C60000B44183301225A71FB680133FB60FB68A7
:100C7000032B7FF7BAAE1037BD4690BC704700BF5C
:100C80002001002090B583B000AF00237B6022E0FC
:100C900014497A6813469B001344DB000B44183355
:100CA0005B79002B14D00F497A6813469B001344DC
:100CB000DB000B4418331C6878680A497A681346CD
:100CC0009B001344DB000B4420331B681946A047EC
:100CD0007B6801337B607B68032BD9DD0C37BD4615
:100CE00090BD00BF2001002080B58AB000AF7860C1
:100CF0004FF0FF324FF0FF33C7E9062300237B623A
:100D000027E037497A6A13469B001344DB000B4403
:100D100018331B79002B19D031497A6A13469B008E
:100D20001344DB000B44D3E90001D7E906239942C1
:100D300008BF90420AD22A497A6A13469B0013449C
:100D4000DB000B44D3E90023C7E906237B6A0133A8
:100D50007B627B6A032BD4DD224B00221A70D7E919
:100D60000623B3F1FF3F08BFB2F1FF3F35D0D7E90B
:100D70000623C7E904231C4BFB60FB681A464FF0AF
:100D80000003D7E90401994208BF904201D202460C
:100D90000B46C7E90623154B1B7883F00103DBB232
:100DA000002B05D07B6823F07F43114A136002E0DB
:100DB0000F4A7B6813600220FFF734FBBA697B6837
:100DC000134423F07F430020194602F007FD054B32
:100DD00001221A700220FFF745FB2837BD4680BD6F
:100DE00020010020C90100209BFFFF00C801002056
:100DF000C001002080B487B000AFF860B9607A60AD
:100E0000FB6803F10473DA00BB6813449B007B6149
:100E10007B697A681A601C37BD465DF8047B7047B1
:100E200080B485B000AFF860B9607A60FB681A687A
:100E3000BB68DB431A407B681A43FB681A601437AF
:100E4000BD465DF8047B704780B582B000AF786026
:100E500039607B681D4A934203D07B681C4A9342E9
:100E600000D100BF3B681B78DA073B685B789B07C3
:100E700013431A463B685B681B0613433A68127AB1
:100E8000120213433A68527A12011A437B681A60BD
:100E90003B689B7A1B071A463B68DB7A1B041A43A4
:100EA0003B68DB681B02134343F0807343F0B003DD
:100EB0007A6853607A683B681B7C104600211A46AA
:100EC000FFF798FF0837BD4680BD00BF0010004007
:100ED0000014004080B584B000AFF860B9601146DE
:100EE0001A460B46FB711346BB71FB680C4A9342D2
:100EF00003D0FB680B4A934200D100BFFA68BB796C
:100F0000DB00104608211A46FFF78AFFBB681A0269
:100F1000FB791A43FB68DA611037BD4680BD00BF1C
:100F2000001000400014004080B483B000AF78602F
:100F30000B46FB701346BB707B680C4A934203D090
:100F40007B680B4A934200D100BF7B685B6823F04B
:100F5000F703FA7812011A43BB781A437B685A6088
:100F60000C37BD465DF8047B704700BF00100040A1
:100F70000014004080B582B000AF786039607B68B3
:100F8000224A934203D07B68214A934200D100BF9A
:100F90007B68184600210022FFF72CFF3B681B7876
:100FA000DA073B685B789B0713431A463B685B682C
:100FB0001B0613433A68127A520413433A68527A72
:100FC000120413433A68927A120213433A68D27AAF
:100FD000120113433A68127B92001A437B681A602D
:100FE0003B685B7B1B041A463B681B691B021A4368
:100FF0007B685A607A683B681B7D104600211A4660
:10100000FFF7F8FE0837BD4680BD00BF0010004066
:101010000014004080B487B000AFF860B9607A6017
:10102000FB6803F10473DA00BB6813449B007B6127
:101030007B697A681A601C37BD465DF8047B70478F
:1010400080B485B000AF786039607B6803F10473C9
:10105000DA003B6813449B00FB60FB681B68184682
:101060001437BD465DF8047B704700BF80B485B07F
:1010700000AF78607B68002B04D07B68B3F5004F2D
:1010800000D800BF7B68B3FA83F3C3F11F03FB6092
:10109000FB6818461437BD465DF8047B704700BFF7
:1010A00080B400AF044BDB6C1B0EDBB21846BD46B0
:1010B0005DF8047B704700BFB081E00F80B400AFE3
:1010C000054BDB6C03F47F031B0CDBB21846BD46FB
:1010D0005DF8047B704700BFB081E00F80B582B03F
:1010E00000AFFFF7EBFF03464A2B04D0792B02D069
:1010F000482B21D022E0144B1B699BB203F03F0325
:101100009BB21B02FB80104B9B6903F0F0039AB269
:10111000FB881343FB800C4BDB6903F0F0031B09D6
:101120009AB2FB881343FB80FB88B3F5017F01D3A0
:10113000064B04E0064B02E0054B00E00023184696
:101140000837BD4680BD00BFD0FF0FE000366E01FE
:101150000048E80180B584B000AF786039607A68F3
:101160003B689A428CBF01230023DBB2FB60064838
:101170001E21FA68FFF74EFF04480821FA68FFF7BE
:1011800049FF1037BD4680BD00800C4004800C40F4
:1011900080B582B000AF07481E21FFF751FF78608D
:1011A00005480821FFF74CFF38607B681846083770
:1011B000BD4680BD00800C4004800C4080B582B0EC
:1011C00000AF214B5B6903F4E063B3F5007F1CD0F3
:1011D000B3F5007F05D8002B25D0B3F5807F1FD055
:1011E0002AE0B3F5C06F24D0B3F5E06F1ED0B3F59D
:1011F000407F21D1FFF754FF0346122B02D9134B36
:101200007B601CE0124B7B6019E0FFF749FF03464F
:10121000122B02D90F4B7B6011E00F4B7B600EE06D
:101220000E4B7B600BE00E4B7B6008E00D4B7B6050
:1012300005E00D4B7B6002E000237B6000BF7B6814
:1012400018460837BD4680BD00800C40804F120014
:1012500040420F0040B56400C0CF6A00C0D8A7006C
:10126000809FD500406F4001003FAB0180B582B048
:1012700000AF0D4800F0A6FB0346FB70FB78072B80
:1012800005D0082B07D1FEF7DDFF786006E0FFF7F9
:1012900095FF786002E000237B6000BF7B68184602
:1012A0000837BD4680BD00BF06000C0080B485B085
:1012B00000AF7860284BDB6B002B14BF01230023A9
:1012C000BB72254B41F67132DA63234B5B6803F046
:1012D0000703FB60FB68012B01D9042B02D100231B
:1012E000FB7202E00123FB7200BF7B681B4A934242
:1012F00007D9FB7A002B01D0052300E00423FB6013
:1013000016E07B68154A93420BD87B68144A9342D7
:1013100007D9FB7A002B01D0032300E00123FB60F7
:1013200006E0FB7A002B01D0022300E00023FB60E3
:101330000949094B5B6823F00702FB6813434B60C4
:10134000BB7A002B02D0044B0022DA631437BD466F
:101350005DF8047B704700BF00000C400048E801C6
:101360000024F40080B500AFFEF762FF0346184684
:10137000FFF79CFF80BD00BF90B585B000AF7860DF
:101380000023BB607B68344A934203D0334A9342C4
:1013900000D000E000BF786800F014FB0346FB605B
:1013A0007B682D4A934203D02C4A934206D00CE02E
:1013B0002B4B9B6A03F00303FB6006E0284B9B6A00
:1013C00003F00C039B08FB6000BFFB68032B3AD8BB
:1013D00001A252F823F000BF0F140000E91300002F
:1013E000F1130000F9130000FEF7BEFFB8602DE016
:1013F000FEF7CEFFB86029E0FEF700FF0446FFF7D6
:10140000C7FE0346013324FA03F3BB601EE000234A
:10141000BB607B68104A934203D07B680F4A9342BB
:1014200010D10F4B9A6A7B680B498B4201D1102374
:1014300000E0142322FA03F3002B03D0FEF79EFFF3
:10144000B86003E002E00023BB6000BFBB68184641
:101450001437BD4690BD00BF02001A0003001C00F7
:1014600000800C4080B483B000AF7860094B5B6DA6
:1014700003F00103002B00D006E000BF054B1A6DFE
:101480007B681340002BF9D10C37BD465DF8047B17
:10149000704700BF00800C4080B582B000AF10489C
:1014A00000F090FA0346FB70FB78032B07D0082B63
:1014B00009D0022B0BD1FEF76BFF78600AE0FEF734
:1014C00053FF786006E0FEF7BDFE786002E000237F
:1014D0007B6000BF7B6818460837BD4680BD00BFF3
:1014E00007232200B0B584B000AF786039607B6814
:1014F0001B0903F00F03FB60FB68013B062B00F2A6
:10150000F68001A252F823F025150000EF16000026
:10151000EF1600005915000083150000D7150000D4
:101520009B1600003B68002B03D03B68082B00D8BB
:1015300000BFFFF717FF70496F4B1B6823F4E032C1
:101540003B68013B9B0313430B60FEF757FEB860FB
:10155000B868FFF7ABFECBE03B68002B04D03B68DC
:10156000B3F5007F00D800BF3868FFF77FFD386013
:101570006149614B9B6823F00F023B6813438B600A
:10158000B6E03B68002B04D03B68B3F5007F00D881
:1015900000BFFFF7E7FEFEF755FE02463B68B2FBD1
:1015A000F3F4FFF79BFD034620461946FFF7D2FDF3
:1015B0003868FFF75BFD38604F494F4B5B6823F09D
:1015C0000F023B6813434B60FEF718FEB860B86823
:1015D000FFF76CFE8CE07B68484A93421ED0474A76
:1015E000934203D8464A934207D055E0454A934276
:1015F00025D0454A93423FD04EE00420FFF732FF0A
:101600003868FFF733FD38603B493B4B9B6E23F056
:10161000F0023B681B0113438B663DE00420FFF79B
:1016200021FF3868FFF722FD38603349324B9B6E4B
:1016300023F470623B681B0213438B662CE03B680B
:101640000F2B03D93B68802B00D800BF0420FFF785
:1016500009FF3868FFF70AFD3860274D264B9B6E5F
:1016600023F440541020FFF701FD02463B689B1A0B
:101670001B032343AB660FE00420FFF7F3FE38683B
:10168000FFF7F4FC38601C491B4B9B6E23F00302F0
:101690003B6813438B6600BF2AE07B681B4A93427A
:1016A00003D01B4A934210D020E04020FFF7DAFE1F
:1016B0003868FFF7DBFC38600F490F4B1B6F23F0D6
:1016C00003023B6813430B6710E04020FFF7CAFE9C
:1016D0003868FFF7CBFC38600749074B1B6F23F0D6
:1016E00030023B681B0113430B6700BF00E000BFE3
:1016F0001037BD46B0BD00BF00800C40602614000E
:10170000601610006000260060062A0070071600B0
:101710007017180090B587B000AF78600B46FB706B
:1017200000233B617B681B0A03F00F03013B092B7D
:1017300049D801A252F823F07D170000831700005A
:1017400061170000C7170000C717000089170000C5
:1017500093170000C7170000C71700009D1700006F
:101760001B4B7B611B4800F041F80446FFF7B6FCB9
:10177000034620461946FFF7EDFC12E0164B7B614D
:101780000FE0164B7B610CE0154B7B6101233B6145
:1017900007E0144B7B6110233B6102E0124B7B613D
:1017A00000BF7B681B0B03F01F03FB603B69002B32
:1017B00002D03869FFF756FEFB787869F9681A4657
:1017C000FFF728FC00E000BF1C37BD4690BD00BFFE
:1017D00040800C400043020008800C4044800C40D4
:1017E00058800C4060800C4078800C4090B585B0EB
:1017F00000AF78607B6803F47813B3F5B01F00F096
:10180000AB80B3F5B01F1AD8B3F5402F00F0BF80FE
:10181000B3F5402F08D8B3F5003F3CD0B3F5802F87
:101820002DD0002B27D0BEE0B3F5801F3CD0B3F500
:10183000A01F47D0B3F5602F00F0AD80B3E0B3F543
:10184000081F00F0AC80B3F5081F0AD8B3F5D01F0D
:1018500025D0B3F5E01F7AD0B3F5C01F00F0898022
:10186000A1E0B3F5201F4ED0B3F5281F62D0B3F529
:10187000181F35D097E0FEF7E5FCF86096E0FEF71C
:10188000E1FCF8604C4B9B6803F00F031A46FB68C1
:10189000D340FB608AE0FEF7B1FCF86086E0474881
:1018A000FFF76AFDF86081E04448FFF765FDF860E6
:1018B000414B9B6E03F0F0031B091A46FB68D340B3
:1018C000FB6073E03D48FFF757FDF8603A4B9B6EB5
:1018D00003F470631B0A1A46FB68D340FB6065E0A3
:1018E0003648FFF749FDF860334B9B6E03F44053D5
:1018F0001C0B1020FFF7BAFB034623441A46FB6873
:10190000D340FB6052E02D48FFF736FDF8602A4BCC
:101910009B6E03F440531B0B1A46FB68D340FB60DD
:10192000254BDB6F03F007030133FA68B2FBF3F3D7
:10193000FB603BE02148FFF71FFDF8601E4B9B6EEC
:1019400003F003031A46FB68D340FB602EE01C48FB
:10195000FFF712FDF86029E01948FFF70DFDF86068
:10196000154B1B6F03F003031A46FB68D340FB6063
:101970001CE01348FFF700FDF8600F4B1B6F03F0EE
:1019800030031B091A46FB68D340FB600EE0FFF7EB
:101990006DFCF8600AE0FFF711FCF86006E0FFF765
:1019A0007BFDF86002E00023FB6000BFFB68184687
:1019B0001437BD4690BD00BF00800C4002001A00E5
:1019C00003001C0080B485B000AF78600123FB7376
:1019D0007B6803F00F03BB60BB68013B062B00F282
:1019E000938001A252F823F0051A00003B1A000070
:1019F000771A0000091B0000091B0000B31A000041
:101A0000D51A0000454BDB6A03F47053B3F5805FD1
:101A100009D0B3F5005F03D0B3F5006F06D008E03E
:101A20000223FB7308E00323FB7305E00423FB732D
:101A300002E00523FB7300BF69E0384B9B6A03F0AB
:101A40000303022B06D0032B07D0012B08D103235D
:101A5000FB730FE00223FB730CE00623FB7309E02A
:101A60002E4B9B6A03F48033002B02D00923FB73B7
:101A700000E000BF4BE0294B9B6A03F00C03082BEE
:101A800006D00C2B07D0042B08D10323FB730FE0E7
:101A90000223FB730CE00623FB7309E01F4B9B6AD8
:101AA00003F48013002B02D00923FB7300E000BF76
:101AB0002DE01A4B1B6803F08053002B03D0B3F1C9
:101AC000805F03D023E00723FB7302E00823FB734E
:101AD00000BF1CE0114BDB6A03F46033B3F5803FB9
:101AE00008D0B3F5003F08D0B3F5004F08D1082364
:101AF000FB7308E00223FB7305E00323FB7302E0A2
:101B00000123FB7300BF02E00023FB7300BFFB7BDC
:101B100018461437BD465DF8047B704700800C40C2
:101B200090B589B000AF78600B46FB700323FB6172
:101B30000323FB7600233B617B6803F00F03FB600C
:101B4000FB68013B062B00F2348101A252F823F01E
:101B50006D1B0000591C0000591C0000B31D000043
:101B6000B31D0000211D00004B1D0000FB78023B4F
:101B7000072B00F2228101A252F823F09D1B0000E6
:101B8000A71B0000B11B0000FB1B0000BB1D0000D9
:101B9000BB1D0000BB1D0000BB1D00000423FB613A
:101BA0000023FB7639E00323FB610123FB7634E05D
:101BB0000223FB610223FB76FFF790FA03465C1CCD
:101BC000FFF78CFA034620461946FFF7C3FAFEF7E3
:101BD000B9FB02467C4B9A4206D97C4A7B4B1B6878
:101BE00043F06003136018E0784A784B1B6823F0D9
:101BF000600343F0200313600FE00123FB61032324
:101C0000FB76FFF76BFA03465C1CFFF767FA0346A7
:101C100020461946FFF79EFA00BFFB7E18460121B9
:101C2000012200F0D9F8FFF79DFB684AFB69536277
:101C30006748FFF7DBFD0446FFF750FA03462046EE
:101C40001946FFF787FA00F033FDFEF7D7FAB860C0
:101C5000B868FFF72BFBADE0FB78013B082B00F2E7
:101C6000AE8001A252F823F08D1C0000931C0000EE
:101C7000A31C0000BF1D0000BF1D0000B31C00001E
:101C8000BF1D0000BF1D0000D71C000000237B61AA
:101C900026E000200121012200F09EF802237B6152
:101CA0001EE001200121012200F096F801237B6152
:101CB00016E0FEF7A3FAB860FFF710FA0346B8681B
:101CC0001946FFF747FA434804210122FFF7A2F91A
:101CD00003237B6104E000237B6101233B6100BFA0
:101CE000FB68022B0DD13949384B9B6A23F48033B2
:101CF00023F003037A691A433B691B0413438B6285
:101D000058E03249314B9B6A23F4801323F00C03D3
:101D10007A6992001A433B691B0513438B6249E0C1
:101D2000FB78072B02D0082B07D049E0274A274B26
:101D30001B6823F08053136006E0244A234B1B6882
:101D400043F08053136000BF34E0FB78032B14D0C2
:101D5000082B22D0022B00D032E0002001210122EA
:101D600000F03AF8194B40225A6200BF174BDB6A69
:101D700003F48033002BF9D01AE001200121012265
:101D800000F02AF8114B60225A6200BF0F4BDB6A49
:101D900003F40033002BF9D00AE00C4B20225A62E6
:101DA00000BF0A4BDB6A03F40043002BF9D000BFED
:101DB00000E000BFFFF7ECF902E000BF00E000BF69
:101DC0002437BD4690BD00BF0048E80100800C40AC
:101DD0000043020040800C4080B586B000AF03464F
:101DE000FB710B46BB7113467B71FB79042B4AD800
:101DF00001A252F823F000BF451E0000371E00006C
:101E00001B1E00000D1E0000291E000001233B6167
:101E10000223FB6001237B611DE004233B61082357
:101E2000FB6003237B6116E010233B612023FB60F2
:101E300005237B610FE040233B618023FB60072388
:101E40007B6108E04FF480733B614FF40073FB60EB
:101E500009237B6100BFBB79002B0ED00C4A3B6984
:101E600013627B79002B0BD000BF0A487969FFF71A
:101E7000E7F80346002BF8D002E0054AFB6813623E
:101E800000F016FC00E000BF1837BD4680BD00BF63
:101E900000800C402C800C4080B400AF72B6BD4670
:101EA0005DF8047B704700BF80B400AF62B6BD46EA
:101EB0005DF8047B704700BF80B483B000AFEFF3E0
:101EC00010833B603B687B6072B67B6818460C37BA
:101ED000BD465DF8047B704780B483B000AF786086
:101EE0007B68002B00D162B60C37BD465DF8047BE1
:101EF000704700BF80B483B000AF0346FB71084950
:101F000097F907305B09FA7902F01F02012000FA05
:101F100002F241F823200C37BD465DF8047B704780
:101F200000E100E080B483B000AF0346FB710949D3
:101F300097F907305B09FA7902F01F02012000FAD5
:101F400002F2203341F823200C37BD465DF8047BB4
:101F5000704700BF00E100E080B483B000AF0346EB
:101F6000FB71094997F907305B09FA7902F01F0202
:101F7000012000FA02F2603341F823200C37BD46FD
:101F80005DF8047B704700BF00E100E080B487B0DB
:101F900000AFF860B9607A60FB6803F10473DA009F
:101FA000BB6813449B007B617B697A681A601C37AD
:101FB000BD465DF8047B704780B489B000AF78609F
:101FC000084611461A460346FB700B46BB70134683
:101FD0007B707B681A013C4B9B681344BB61BB78E8
:101FE000002B02D0BB69FB6105E07B681A01364B10
:101FF000DB681344FB61BB69DB687B617B69002B99
:1020000002D0BA787B691A72FB6A002B14D0FB6984
:102010009B6803F040639B0E3B613B69032B03D13C
:10202000FB69FA6A1A6007E03B693A6B9A40FB6AFF
:1020300013441A46FB691A60BB6A002B12D0FB6975
:102040009B689B0F3B613B69032B03D1FB69BA6A19
:102050005A6007E03B693A6B9A40BB6A13441A46E0
:10206000FB695A607B68012202FA03F3FB607B780C
:10207000002B03D0144AFB68936102E0124AFB680C
:10208000D361BB78002B03D00F4AFB68536302E097
:102090000D4AFB681363FB699B6823F47F5323F0AD
:1020A0003703BB603B6B1B01BA681343BB60FB7813
:1020B000BA681343BB60FB69BA689A602437BD46AF
:1020C0005DF8047B704700BF00200C4080B58AB0EB
:1020D00000AF334B03F580531B68BB61304B03F5F6
:1020E00080530C331B68BA691340BB612C4B9B6B4C
:1020F0007B61BA697B6913403B620023FB6149E065
:1021000000237B623BE03B6A03F00103002B30D0ED
:10211000234B9B683B6101227B6A02FA03F3FB605D
:102120001F4B03F580530833FA681A607B6A1B0162
:102130003A691344DB68BB60BB68002B19D0BB68ED
:102140001B7A7B60BB681B7A83F00103DAB2BB6841
:102150001A72BB681B68002B0BD0BB681B68786ABF
:102160007A68002A14BF01220022D1B2BA685268EC
:1021700098473B6A5B083B627B6A01337B623B6A40
:10218000002BC0D17B69DA43BB6913403B62FB691A
:102190000133FB61FB69012BB2DD2837BD4680BDF1
:1021A00000200C4090B589B004AFF8607B600B460E
:1021B000FB721346BB72FA7ABC7A7B6800933B6A67
:1021C00001937B6A0293F86801212346FFF7F4FE2E
:1021D000044AFB68012101FA03F393621437BD46F8
:1021E00090BD00BF00200C4080B584B000AF786087
:1021F00039601F4B9B68FB607B681B01FA681344C6
:102200003A689268DA603B681B78002B06D0184A5F
:102210007B68012101FA03F3936305E0144A7B68AC
:10222000012101FA03F3D36311493B685A687B68C3
:1022300003F5886341F823203B685B78002B0FD0BF
:102240000B4A7B68012101FA03F3194602F580531A
:1022500008331960074879680122FFF797FE04E008
:10226000044879680022FFF791FE1037BD4680BD13
:1022700000200C400C300C4080B487B000AFF860F8
:102280000B467A60FB72FB7A002B03D0154B9B68E0
:102290007B6102E0134BDB687B61FB681B017A69A1
:1022A00013447B617B681B789A077B689B781B07CC
:1022B0001A437B685B789B061A437B689B781B06F6
:1022C00013431A467B681B799B0413437A68D278C0
:1022D00092031A437B699A601C37BD465DF8047B04
:1022E000704700BF00200C4080B582B000AF78601E
:1022F00010480121FFF70EFA00F020F80020FFF748
:102300002BFE0020FFF7F6FD0B4B03F580530C333B
:102310004FF000421A60084A7B685B689360064A87
:102320007B681B785B0143F0010353600837BD46AF
:1023300080BD00BF0003020000200C4080B582B0C9
:1023400000AF0020FFF7EEFD1C4B00225A601B4B34
:1023500040F6FF72DA61194B40F6FF725A62174B72
:1023600040F6FF72DA62154B40F6FF725A63134B68
:1023700040F6FF72DA63114B0122DA640F4B03F56A
:1023800080530C3300221A600C4B03F58053083342
:102390000B4A1A6000237B6009E0084A7B6803F55A
:1023A0008863002142F823107B6801337B607B68DF
:1023B0000B2BF2DD0837BD4680BD00BF00200C406E
:1023C000FF0F008080B500AFFDF718FF80BD00BF94
:1023D00080B400AF034B0022C3F88420BD465DF8F3
:1023E000047B704700800C4080B400AF044B45F67E
:1023F0000E02C3F88420BD465DF8047B704700BF21
:1024000000800C4080B582B000AF384BD3F88430E8
:1024100003F001037B60FFF7E7FF00233B60344BD1
:102420001B6803F001033A6813433B60304B1B68A1
:1024300003F010033A6813433B602D4B1B6803F015
:1024400040033A6813433B60294B1B6803F00403C5
:102450003A6813433B60264B1B6803F480733A6869
:1024600013433B60214A3B681362214B1B6803F412
:102470007053B3F5805F06D0B3F5005F0ED0B3F5AF
:10248000006F16D020E000BF184BDB6A03F080031A
:10249000002BF9D0154B03225A6215E000BF134BF5
:1024A000DB6A03F40073002BF9D0104B04225A624C
:1024B0000AE000BF0D4BDB6A03F00803002BF9D0E4
:1024C0000A4B02225A6200BF094B1B6803F001034A
:1024D000002B02D1054B02221A627B68002B01D02F
:1024E000FFF776FF0837BD4680BD00BF00800C4077
:1024F000CC01002080B483B000AF164B1B699BB2A7
:1025000003F03F039BB21B02FB80124B9B6903F05D
:10251000F0039AB2FB881343FB800E4BDB6903F098
:10252000F0031B099AB2FB881343FB80FB88B3F5C9
:10253000827F03D3FB88B3F5017F01D1012300E043
:10254000002303F00103DBB218460C37BD465DF8EB
:10255000047B7047D0FF0FE080B586B000AF034624
:10256000FB711F4BDB6A1F4A13601F4A1E4B1B691E
:1025700043F004031361FFF7BDFF0346FB75FB7DCA
:10258000002B11D0194B1A68194B1340FB60174AE6
:10259000FB68C2F88030154B5B6823F046033B6153
:1025A000124A3B69C2F8843030BFFB7D002B05D056
:1025B0000E4AFB6813600D4A3B695360FB79002BA0
:1025C00002D0FFF71FFF07E0064B1B6803F4806390
:1025D000002B01D1FFF7F6FE1837BD4680BD00BFC6
:1025E00000800C40CC01002000ED00E000E100E0A4
:1025F0009CF1FD0080B586B000AF0346FB71274B10
:10260000DB6A274A1360254BD3F8843003F00103BB
:102610007B61FFF7E9FE214B4FF420721A627B6960
:10262000002B01D0FFF7D4FE1E4A1E4B1B6943F05E
:1026300004031361FFF75EFF0346FB74FB7C002B72
:1026400011D0194B1A68194B1340BB60164ABB686E
:10265000C2F88030144B5B6823F04603FB60124ADB
:10266000FB68C2F8843030BFFB7C002B05D00E4ADB
:10267000BB6813600C4AFB685360FB79002B02D0E7
:10268000FFF7C0FE07E0064B1B6803F48063002BD6
:1026900001D1FFF797FE1837BD4680BD00800C4082
:1026A000CC01002000ED00E000E100E09CF1FD0025
:1026B00080B400AF034BDB6A034A1360BD465DF88C
:1026C000047B704700800C40CC01002080B487B0B0
:1026D00000AFF860B9607A60FB6803F10473DA0058
:1026E000BB6813449B007B617B697A681A601C3766
:1026F000BD465DF8047B704780B485B000AFF860DC
:10270000B9607A60FB681A68BB68DB431A407B6873
:102710001A43FB681A601437BD465DF8047B7047A6
:1027200080B483B000AF03463960FB71FB79002BA6
:102730000DD0FB79012B0AD0FB79022B07D0FB7956
:10274000032B04D0FB79042B01D0FB79052B09491D
:10275000FA793B68012000FA03F318461346DB00C0
:1027600013449B000B44103358600C37BD465DF892
:10277000047B70470060004080B483B000AF034624
:102780003960FB71FB79002B0DD0FB79012B0AD04E
:10279000FB79022B07D0FB79032B04D0FB79042BA8
:1027A00001D0FB79052B0949FA793B68012000FA31
:1027B00003F318461346DB0013449B000B4410330D
:1027C00018600C37BD465DF8047B70470060004020
:1027D00090B482B000AF03460A46FB711346BB714A
:1027E000FB79002B0ED0FB79012B0BD0FB79022B50
:1027F00008D0FB79032B05D0FB79042B02D0FB79A1
:10280000052B03D1BB79032B00D800BF0B48FA7905
:102810000A4CF9790B46DB000B449B0023441B68F0
:1028200023F00301BB7919431346DB0013449B00DB
:10283000034419600837BD4690BC704700600040F3
:1028400080B586B000AFB9607A601A460346FB7364
:102850001346BB73FB7B002B0DD0FB7B012B0AD0F7
:10286000FB7B022B07D0FB7B032B04D0FB7B042BD1
:1028700001D0FB7B052B7B68072B0ED87B689B0068
:102880001A46072303FA02F1FB7B7A689200934011
:1028900019481A46FFF730FF10E07B68083B7B6160
:1028A0007B699B001A46072303FA02F1FB7B7A69D6
:1028B0009200934011481A46FFF71EFFBB7B104859
:1028C00079681A46FFF702FF97F820300D487968BB
:1028D0001A46FFF7FBFE0C4A7B68012101FA03F35D
:1028E000C2F81C3197F82430084879681A46FFF777
:1028F000EDFE1837BD4680BD006100400461004018
:10290000086100400C610040006000401061004020
:1029100090B585B000AFB9607B600346FB7313468A
:10292000BB73FB7B002B0DD0FB7B012B0AD0FB7B09
:10293000022B07D0FB7B032B04D0FB7B042B01D0A5
:10294000FB7B052BBB7B002B0DD07B68002B05D0C0
:10295000FB7B1846B968FFF70FFF04E0FB7B1846C6
:10296000B968FFF7DDFEBB68072B1CD82A4CFA7B41
:102970002948F97B0B46DB000B449B0003445B6852
:10298000B968890008460F218140C9430B40B97BD3
:10299000B8688000814019431346DB0013449B0054
:1029A0002344596024E01C4CFA7B1B48F97B0B46FE
:1029B000DB000B449B00034408331968BB6803F138
:1029C0008043083B9B0018460F238340DB4319409C
:1029D000B87BBB6803F18043083B9B0000FA03F31C
:1029E00019431346DB0013449B002344083319604A
:1029F000BB7B002B0DD17B68002B05D0FB7B1846E1
:102A0000B968FFF7B9FE04E0FB7B1846B968FFF729
:102A100087FE1437BD4690BD0060004080B487B08B
:102A200000AFF860B9607A60FB6803F10473DA0004
:102A3000BB6813449B007B617B697A681A601C3712
:102A4000BD465DF8047B704780B485B000AFF86088
:102A5000B9607A60FB681A68BB68DB431A407B6820
:102A60001A43FB681A601437BD465DF8047B704753
:102A700080B588B000AFF860B9607A60FB707B68A1
:102A8000002B00D15EE0FB681B6823F44072FB68FA
:102A90001A60FA68FB781B0210464FF440711A4620
:102AA000FFF7D2FFBB68002B03D12848FEF79EFE3C
:102AB000B8604FF0FF33BB61FB681B6803F0020393
:102AC000002B11D0FB78012B07D0022B08D0002B54
:102AD00000D019E01E4BBB6105E01E4BBB6102E05C
:102AE0001D4BBB6100BF0FE0FB78012B06D0022B12
:102AF00007D0002B08D1194BBB6105E0184BBB6117
:102B000002E0184BBB6100BFFB78174AD35C7B61C6
:102B10007B689B00BA68D21A7B69796801FB03F372
:102B2000B2FBF3F3013BFB61FB681B6803F002039C
:102B3000002B04D0FB69002B01D10123FB61FA6952
:102B4000FB681A612037BD4680BD00BF408104008C
:102B500040164000C0D8A7008050740180841E0039
:102B600040548900002D31018C67000080B582B08F
:102B700000AF78600B46FB707B68094A934203D034
:102B80007B68084A934200D100BF7A68FB78104600
:102B900000211A46FFF742FF0837BD4680BD00BF3F
:102BA00000A0004000A4004080B582B000AF786073
:102BB00039607B68174A934203D07B68164A934278
:102BC00000D100BF7B6800225A637B68134A1A63F6
:102BD0007A683B685B78002B01D0002300E001237A
:102BE000104601211A46FFF719FF3B6859683B68F8
:102BF0009A683B681B7B7868FFF73AFF7A683B6806
:102C00001B78104600211A46FFF708FF0837BD461B
:102C100080BD00BF00A0004000A40040CFFF010025
:102C200080B487B000AFF860B9607A60FB6803F1E8
:102C30000473DA00BB6813449B007B617B697A688C
:102C40001A601C37BD465DF8047B704780B582B0C2
:102C500000AF78600B46FB70FB78002B01D000F0D2
:102C60006DFB7B681B7D184600F020F950497B689E
:102C70005B789B007A6892781A437B689B681A435A
:102C80007B68DB681A437B68DB785B021A437B68EE
:102C90001B799B021A437B685B795B031A437B6851
:102CA0009B795B041A437B68DB791B041A437B68BE
:102CB0005B7C9B0513430B607B681B7818460021E7
:102CC00000F0D6F83A497B681B7E1A467B685B7E2B
:102CD0009B001A437B689B7E9B011A437B68DB7ECB
:102CE0005B001A437B681B7F1B011A437B685B7F79
:102CF0001B021A437B689B7F9B021A437B681B6AFB
:102D00001A437B6893F824301B051A437B6893F8B9
:102D100025309B051A437B689B6A13438B602449CB
:102D20007B689B8D1A467B6893F83B309B021A4365
:102D30007B6893F83C309B031A437B6893F83D30E3
:102D40009B041A437B6893F83E309B051A437B68CB
:102D500093F834305B001A437B6893F835309B005E
:102D60001A437B6893F83630DB001A437B6893F88C
:102D700037301B011A437B6893F838305B011A43E4
:102D80007B6893F839309B011A437B6893F83A309B
:102D9000DB011343CB607B681B6B184600F070FAB5
:102DA000034A7B681B7C13610837BD4680BD00BFAA
:102DB00000C0084080B588B000AF7860396000235B
:102DC000FB610123BB613F237B617B68002B03D147
:102DD0002548FEF70BFD78603B68002B04D03A686D
:102DE0007B689A4200D800BF07E0FB690133FB61B2
:102DF000FB69012202FA03F3BB613B68BA6902FB7B
:102E000003F37A68B2FBF3F27B6901339A4202D989
:102E1000FB69062BE9D93B68BA6902FB03F37A68C0
:102E2000B2FBF3F3013B7B61104B5B6823F47F2320
:102E300023F4E0633B61FB691A027B691B031343C4
:102E40003A6913433B61094A3B6953607B6901332B
:102E5000BA6902FB03F37A68B2FBF3F3FB60FB6829
:102E600018462037BD4680BD60062A0000C00840D5
:102E700080B584B000AF03460A46FB711346BB71B0
:102E8000094B1B6823F00303FB60FB79FA681343CB
:102E9000FB60054AFB681360BB79002B01D000F092
:102EA000FFF91037BD4680BD00C0084080B485B032
:102EB00000AF0346FB71094B5B6823F44003FB60E2
:102EC000FB799B05FA681343FB60044AFB68536077
:102ED0001437BD465DF8047B704700BF00C0084052
:102EE00080B485B000AF03460A46FB711346BB7140
:102EF000FB79002B0FD0012B00D01AE00F4B5B6841
:102F000023F00303FB60BB79FA681343FB600B4AB1
:102F1000FB6853600DE0094B5B6823F07003FB60B6
:102F2000BB791B01FA681343FB60044AFB685360DA
:102F300000BF1437BD465DF8047B704700C00840F1
:102F400080B584B000AF78600023FB600AE0FB68C6
:102F50005B017A6813441846F96800F009F8FB68C9
:102F60000133FB60FB680F2BF1D91037BD4680BDE4
:102F700080B584B000AF786039607B685B68B3F57A
:102F8000C03F0BD13B68022B08D03B68032B05D018
:102F90003B68042B02D03B68052B00D100BF7B6847
:102FA0001B7A032B0BD13B680C2B08D03B680D2BF5
:102FB00005D03B680E2B02D03B680F2B00D100BF21
:102FC0007B681B7A032B0BD13B68002B08D03B6836
:102FD000012B05D03B68022B02D03B68032B00D1AC
:102FE00000BF394B9A6B3B685B00194603238B404B
:102FF000DB431340FB607B681B7A1A463B685B002F
:1030000002FA03F3FA681343FB602F4AFB689363E9
:103010003B68D8B27B68D97B7B681A7C7B685B7C19
:1030200000F0D0F828497B685B7B5A047B689B7B67
:103030009B0413437A68928A13437A68D28A1A43AC
:103040007B685B681A437B685B7ADB041A433B68E6
:103050002C331B010B445A601B497B68DA697B687F
:103060009B7A5B041A437B681B7B9B041A437B6837
:10307000DB7ADB041A433B681B010B4403F5327314
:103080001A603B68D9B27B685A8A7B681B8B0846FA
:1030900011461A4600F0B8F87B689B780B483968EF
:1030A0001A46FFF7BDFD7B685B78094839681A4608
:1030B000FFF7B6FD7B681B78064839681A46FFF7AC
:1030C000AFFD1037BD4680BD00C008404CC0084071
:1030D00054C0084018C0084090B585B000AF786073
:1030E0007B681B7834480B211A46FFF799FD7B68F3
:1030F0001B78002B02D0012B44D059E00023FB6049
:103100003CE0FB6803F110047968FA6813465B0041
:1031100013440B445B78294821461A46FFF780FD8B
:10312000254BDA6BFB685B00194603238B40DB43BE
:103130001340BB607968FA6813465B0013440B4484
:103140009B781A46FB685B0002FA03F3BA681343E4
:10315000BB60194ABB68D363FB6803F1100479684C
:10316000FA6813465B0013440B44DB78144821468D
:103170001A46FFF755FDFB680133FB60FB68072B20
:10318000BFD915E00023FB600EE07968FA681346AA
:103190005B0013440B445B780848F9681A46FFF754
:1031A0003FFDFB680133FB60FB680F2BEDD900BFCF
:1031B0001437BD4690BD00BF00C0084054C0084051
:1031C0003CC0084090B482B000AF044608461146A7
:1031D0001A462346FB710346BB710B467B711346AF
:1031E0003B710848FB79B9797A79920111433A79B0
:1031F00052030A432C331B0103441A600837BD46AF
:1032000090BC704700C0084080B485B000AF034652
:10321000FB710B46BB8013467B80184AFB792C332D
:103220001B0113445B6823F47F6323F00F03FB60EF
:10323000BB88FA681343FB60104AFB792C331B01EF
:103240001344FA685A600D4AFB791B01134403F5D5
:1032500032731B681B0C1B04FB607B88FA681343EA
:10326000FB60064AFB791B01134403F53273FA68CD
:103270001A601437BD465DF8047B704700C00840F3
:1032800080B483B000AF7860044A7B6803F00F031A
:1032900013630C37BD465DF8047B704700C00840DF
:1032A00080B400AF00BF0A4B1B6D03F02003002B5E
:1032B000F9D1074B01225A6100BF054B1B6D03F08A
:1032C0002003002BF9D1BD465DF8047B704700BF99
:1032D00000C0084080B400AF00BF0A4B1B6D03F074
:1032E0002003002BF9D1074B02225A6100BF054B86
:1032F0001B6D03F02003002BF9D1BD465DF8047B64
:10330000704700BF00C0084080B400AF00BF0A4B48
:103310001B6D03F02003002BF9D1074B08225A61E3
:1033200000BF054B1B6D03F02003002BF9D1BD46F8
:103330005DF8047B704700BF00C0084080B483B0D4
:1033400000AF374B0022DA64354B364A5A64344AB0
:10335000334BDB6843F00103D36000BF304B1B6D80
:1033600003F02003002BF9D12D4B0A225A612C4B7C
:1033700000221A602A4B00229A60294B0022DA6050
:10338000274B00221A61264B00229A61244B00220F
:103390009A63234B0022DA63214B00225A650023F3
:1033A0007B6018E01E4A7B682C331B01134400220B
:1033B0001A601B4A7B682C331B01134400225A609D
:1033C000174A7B681B01134403F5327300221A600D
:1033D0007B6801337B607B680F2BE3D900237B6024
:1033E0000FE00F4A7B684033002142F833100C4A4B
:1033F0007B684033DB00134400225A607B68013352
:103400007B607B680F2BECD900BF054B1B6D03F075
:103410002003002BF9D10C37BD465DF8047B7047C3
:1034200000C00840FFFF7F0080B487B000AFF860A5
:10343000B9607A60FB68114A934208D1BB68012BDE
:1034400005D87B681B0C1B04002B00D100BFBB6898
:10345000002B02D0012B04D00AE0FB6810337B6103
:1034600003E0FB6814337B6100BF7B697A681A60F4
:103470001C37BD465DF8047B704700BF0020084044
:1034800080B483B000AF78600B46FB70FB78002BF4
:1034900003D07B6801225A6002E07B6802225A60F6
:1034A0000C37BD465DF8047B704700BF80B485B023
:1034B00000AF786039600023FB603B681B7883F0C5
:1034C0000103DBB2002B08D07B689B6803F001038B
:1034D000002B02D07B6802225A603B685B78002B8D
:1034E00003D0FB6843F48053FB603B689B78002B60
:1034F00003D0FB6843F48063FB603B68DB78002B00
:1035000003D0FB6843F40063FB603B681B79002B2E
:1035100003D0FB6843F40073FB603B685B79002BCE
:1035200003D0FB6843F48073FB603B689B79002BFE
:1035300003D0FB6843F04003FB603B68DB79002B62
:1035400003D0FB6843F08003FB603B681B7A9B0061
:103550001A46FB681343FB603B685B7A1B011A4603
:10356000FB681343FB603B689B7A1A46FB68134376
:10357000FB607B68FA681A603B681B78002B08D0F8
:103580007B689B6803F00103002B02D17B6801225A
:103590005A601437BD465DF8047B704780B483B031
:1035A00000AF786039607B681B6C03F00103002B6F
:1035B00000D006E000BF7B685A6C3B681340002BCC
:1035C000F9D10C37BD465DF8047B704780B586B0F5
:1035D00000AFF860B9607A60BB68002B12D1FB685D
:1035E000164A934202D1164B7B6107E0FB68154AED
:1035F000934202D1144B7B6100E01BE07869FEF737
:10360000F5F8B860BB685A017B68B2FBF3F33B6125
:103610003B69203B3B613B69DB003B613A6947F614
:10362000F87313403B61F8680421FFF7B7FFFB68AC
:103630003A69DA601837BD4680BD00BF00400840D7
:1036400070071600004408407017180080B483B05B
:1036500000AF78600B46FB70FB78002B08D000BFF2
:103660007B685B6C002BFBD17B6801221A6402E053
:103670007B6800221A640C37BD465DF8047B7047F6
:1036800080B582B000AF786039607B681B4A934296
:1036900003D07B681A4A934200D100BF78680221A8
:1036A000FFF77CFF7B680A225A6078680121FFF7E8
:1036B000CDFF7B681B6823F01C033A68127B134321
:1036C0003A68527B13433A68927B1A437B681A60CC
:1036D0003B685A683B689B68786811461A46FFF752
:1036E00075FF3B681B781A467B685A607868002132
:1036F000FFF7ACFF0837BD4680BD00BF0040084063
:103700000044084080B582B000AF78607B68174AFB
:10371000934203D07B68164A934200D100BF786879
:103720000121FFF793FF7B68EA225A607B68002241
:103730001A607B680022DA607B6800221A617B686D
:1037400000225A617B6800229A637B6840F2F9721A
:103750005A637B680022DA637B6800225A657868C6
:103760000021FFF773FF0837BD4680BD00400840C9
:103770000044084080B487B000AFF860B9607A6058
:10378000FB6803F10473DA00BB6813449B007B61A0
:103790007B697A681A601C37BD465DF8047B704708
:1037A00080B485B000AF78607B68002B02D0012B1D
:1037B00004D007E0084B9B68FB6006E0064BDB6823
:1037C000FB6002E00023FB6000BFFB681846143773
:1037D000BD465DF8047B70470000084080B485B0AA
:1037E00000AF786039607B68012B05D83B6803F037
:1037F0007F43002B00D100BF7B68002B02D0012B40
:1038000003D008E0064BFB6002E0064BFB6000BF04
:10381000FB683A681A601437BD465DF8047B704750
:10382000080008400C00084080B582B000AF034695
:10383000FB71FB79034800211A46FFF79BFF08370D
:10384000BD4680BD0000084080B485B000AF786000
:103850007B681B78002B02D00123FB6001E0002372
:10386000FB607B685B78002B03D0FB6843F00203AE
:10387000FB607B689B78002B03D0FB6843F004035C
:10388000FB60044AFB6813601437BD465DF8047B97
:10389000704700BF0000084080B500AF0020FFF770
:1038A000C3FF0120FFF7C0FF80BD00BF80B485B01B
:1038B00000AF7860194B5B69DBB203F00F03DBB23A
:1038C0009B00FB73154B1B6903F0C0039B09DAB225
:1038D000FB7B1343FB737B68FA7B9A700F4B1B696E
:1038E000DBB203F03F03DAB27B685A700B4B9B6983
:1038F000DBB223F00F03FB73084BDB6903F0F0032B
:103900001B09DAB2FB7B1343FB737B68FA7B1A70EB
:103910001437BD465DF8047B704700BFD0FF0FE051
:1039200080B500AF03200021FEF752FF02200021E6
:10393000FEF74EFF0320062104220023FEF7E8FFD6
:103940000220062100220023FEF7E2FF0C480D4969
:10395000FDF710FB0A48002100220023FDF7BAFA08
:1039600007480A210022FDF7DFFA0748002100225C
:103970000023FDF7AFFA04480449FDF765FA80BD5E
:10398000001000409067000000140040A86700008D
:1039900080B500AF18480221FEF7C2F8174802218F
:1039A000FEF7BEF816480121FDF7B4FE15480121C7
:1039B000FDF7B0FE14480121FDF7ACFE13480121CC
:1039C000FDF7A8FE12480121FDF7A4FE11480121D0
:1039D000FDF7A0FE10480121FDF79CFE0E480121D5
:1039E000FDF780FD0D480121FDF794FE0C480121F3
:1039F000FDF790FE80BD00BF02001A0003001C000E
:103A0000004302006026140000D2040000C204003B
:103A10000092040000A2040060062A0000030200D5
:103A20007007160090B585B000AF154B3C460FCB24
:103A300084E80F003B4613481946FFF7B5F8114AD2
:103A4000104B9B6B93630F4A0E4B9B6B43F003032E
:103A500093630C4B9B6803F00103002B02D0094BCE
:103A600020225A6007480121FFF780F80320002137
:103A700004220023FEF74CFF1437BD4690BD00BF63
:103A8000BC67000000A4004080B483B000AF0346D0
:103A9000FB71084997F907305B09FA7902F01F02B8
:103AA000012000FA02F241F823200C37BD465DF8F0
:103AB000047B704700E100E080B400AF034B1B6A59
:103AC0001846BD465DF8047B704700BF00C0084043
:103AD00080B400AF034B9B6A1846BD465DF8047B7B
:103AE000704700BF00C0084080B483B000AF78606A
:103AF000064A7B6803F00F03A03352F823301846C0
:103B00000C37BD465DF8047B704700BF00C008401D
:103B100080B483B000AF7860034A7B6853640C378D
:103B2000BD465DF8047B704700C0084080B483B098
:103B300000AF78600549054BDA6C7B68DB431340C6
:103B4000CB640C37BD465DF8047B704700C008406D
:103B500080B483B000AF064BDB6C7B60044B1A6C07
:103B60007B68134018460C37BD465DF8047B7047F0
:103B700000C0084090B583B000AF4B4B1B78002BC2
:103B800003D04A480121FFF761F8FFF7A3FB00BF0C
:103B9000FFF792FF034603F01003002BF8D1FFF765
:103BA000B3FB00200521FFF705F900200021FFF7F6
:103BB00097F93F48FFF7C4F93E48FFF78DFA3E4BAF
:103BC0001B88082037211A46FFF71EFB3A4B5B88FB
:103BD000092037211A46FFF717FB374B9B880A202D
:103BE00037211A46FFF710FB334BDB880B203721B8
:103BF0001A46FFF709FB4FF48030FFF797FF1120BB
:103C0000FFF742FFFFF74CFB274B1B78002B47D0F9
:103C1000254B00221A7000BF284B1B6A03F00203D9
:103C2000002BF9D00023FB710023BB7119E0BB7995
:103C3000234AD35C002B11D0FB79032B0BD8FC79E2
:103C4000BB791846FFF750FF03469BB2013B9AB27F
:103C5000194B23F81420FB790133FB71BB79013335
:103C6000BB71BB790F2BE2D9134B1B88082037217E
:103C70001A46FFF7C9FA104B5B88092037211A460C
:103C8000FFF7C2FA0C4B9B880A2037211A46FFF730
:103C9000BBFA094BDB880B2037211A46FFF7B4FA31
:103CA0000C37BD4690BD00BF48000020DC67000017
:103CB0001C6800001C6A00001802002000C00840B8
:103CC000CC67000080B483B000AF78603960054AEB
:103CD0007B681360044A3B6813600C37BD465DF88F
:103CE000047B7047100200201402002080B584B0CD
:103CF00000AFFFF72DFFB860B868FFF709FFBB689A
:103D000003F48033002B23D00823FB7316E0FFF766
:103D1000DFFE7860FB7B16497A6841F82320FB7B45
:103D2000144A52F823207B689A4204D2FB7B114943
:103D30007A6841F82320FB7B0133FB73FB7B0B2B61
:103D4000E5D90D4B1B68002B02D00B4B1B68984725
:103D5000BB6803F47463002B07D0084B1B68002B6F
:103D600003D0064B1B68B86898471037BD4680BD26
:103D7000D0010020080000201002002014020020C2
:103D800080B483B000AF0346FB71084997F9073050
:103D90005B09FA7902F01F02012000FA02F241F8F1
:103DA00023200C37BD465DF8047B704700E100E03E
:103DB00080B483B000AF786039607B683A689A62FB
:103DC0000C37BD465DF8047B704700BF80B483B0FC
:103DD00000AF786039607B68DA6A3B681A437B68B9
:103DE000DA620C37BD465DF8047B704780B584B05D
:103DF00000AF78600223FB600123BB6005E0BB6875
:103E00005B00BB60FB685B00FB60F86801F022FEB2
:103E100002460B46104619464FF00002074B02F0CF
:103E200001F90346002B03D0BB68B3F5004FE6D37E
:103E3000BB6818461037BD4680BD00BF0000F03F8C
:103E400080B584B000AF0120FFF7D0FFF8602648AE
:103E5000F968FDF747FB254B1A68FB68B2FBF3F3E3
:103E6000224A1360224B1A68FB68B2FBF3F3204A24
:103E7000136000233B7000237B700023BB70002382
:103E8000FB7001233B7100237B710023BB71002376
:103E9000FB7100233B7200237B720023BB723B4605
:103EA00014481946FFF702FB104B1B68114800210C
:103EB0001A46FFF7B9FA0E4B1B680E4801211A4645
:103EC000FFF7B2FA0B481F21FFF772FF09480121E3
:103ED000FFF77CFF07480221FFF778FF1A20FFF762
:103EE0004FFF1037BD4680BD602614004C000020F7
:103EF000500000200020084080B483B000AF03468B
:103F0000FB71084997F907305B09FA7902F01F0243
:103F1000012000FA02F241F823200C37BD465DF87B
:103F2000047B704700E100E090B587B002AF1D4808
:103F30000221FDF7F5FD1C4B3C460FCB84E80F003A
:103F40000320042104220123FEF7E2FC03200521C3
:103F500002220023FEF7DCFC1448FFF7D3FB3B46AC
:103F600012481946FFF78CFB104B03225A6500F0EC
:103F700025F80E4A0D4B1B6843F4805313600C4A1E
:103F80000B4B5B6843F0010353600A4B0093002323
:103F90000193022001210022074BFEF703F9143799
:103FA000BD4690BD03001C00506A00000040084060
:103FB00000200C401C4008406000002080B58CB000
:103FC00000AF354B354A1A60334B00225A60324BF2
:103FD00000221A72324B334A1A60314B00225A6067
:103FE0002F4B00221A72002387F828302E4BFB62D9
:103FF000032387F82030002387F82130002387F837
:104000002230002387F82330002387F82430274A02
:1040100007F1140307CA83E8070000233B73032357
:104020007B730023BB730023FB7300233B74204A84
:104030003B4607CA83E8070007F128031846FEF746
:1040400053F907F1140301201946FEF7CDF83B465A
:1040500002201946FEF7C8F807F1200301200121CC
:104060001A46FEF709F907F10C03022001211A464E
:10407000FEF702F90F490F4B03F580530C331B6811
:1040800043F0060201F580530C331A600020FFF75D
:1040900033FF3037BD4680BD2802002001540000A8
:1040A000340200209154000000040020606A0000E7
:1040B0006C6A000000200C4080B400AF054A054B3C
:1040C0001B6923F00403136130BFBD465DF8047B18
:1040D000704700BF00ED00E080B582B000AF7860AF
:1040E000FDF7DAFE074A7B6813441B780133D9B227
:1040F000044A7B6813440A461A70FDF7D5FE083758
:10410000BD4680BD2002002080B582B000AF78603F
:10411000FDF7C2FE0A4A7B6813441B78002B0AD0C5
:10412000074A7B6813441B78013BD9B2044A7B6879
:1041300013440A461A70FDF7B7FE0837BD4680BD26
:104140002002002080B500AF0F4B1B78002B00D061
:1041500019E00D4B5B78002B02D0FFF7ADFF12E0AA
:10416000094B9B78002B03D00120FEF7F5F90AE0FC
:10417000054BDB78002B03D00120FEF73BFA02E071
:104180000120FEF737FA80BD2002002080B483B002
:1041900000AF03463960FB71FB79002B0DD0FB7932
:1041A000012B0AD0FB79022B07D0FB79032B04D01B
:1041B000FB79042B01D0FB79052B0949FA793B687F
:1041C000012000FA03F318461346DB0013449B005A
:1041D0000B44103358600C37BD465DF8047B7047C4
:1041E0000060004080B483B000AF03463960FB71CB
:1041F000FB79002B0DD0FB79012B0AD0FB79022B28
:1042000007D0FB79032B04D0FB79042B01D0FB7979
:10421000052B0949FA793B68012000FA03F3184697
:104220001346DB0013449B000B44103318600C371B
:10423000BD465DF8047B70470060004080B584B0E7
:1042400000AF78600220052108220123FEF760FB01
:104250000220042108220123FEF75AFB0023FB73EE
:104260000AE002200521FFF791FF02200521FFF758
:10427000B9FFFB7B0133FB73FB7B082BF1D978681B
:1042800000F00CF8012000F0F7F8042000F034F9F9
:1042900000F074F91037BD4680BD00BF80B584B012
:1042A00000AF78600023FB73104A7B6813600F4BEC
:1042B0001B6876225A770D4B1B681C33D020194699
:1042C000012200F027FD0346002B01D0FF23FB73E2
:1042D00000F00EF80346002B01D0FF23FB73FB7B9D
:1042E0005BB218461037BD4680BD00BF40020020BB
:1042F00080B588B000AF0023FB773B1D00221A6019
:10430000043300221A60043300221A6004330022AE
:104310001A60043300221A60043300221A60043346
:1043200000221A800233534B1B68002B02D1FF235B
:10433000FB7799E03B1D88201946182200F0EAFC23
:104340000346002B02D0FF23FB778DE0494B1B680F
:104350007A79120291B23A7992B20A4392B292B247
:104360001A80444B1B68FA79D2B252B2120291B24F
:10437000BA7992B20A4392B25A803E4B1B687A7A5B
:10438000D2B252B2120291B23A7A92B20A4392B2C5
:104390009A80384B1B68FA7A120291B2BA7A92B2BA
:1043A0000A4392B292B2DA80324B1B687A7BD2B265
:1043B00052B2120291B23A7B92B20A4392B21A817D
:1043C0002C4B1B68FA7BD2B252B2120291B2BA7B6A
:1043D00092B20A4392B25A81264B1B687A7CD2B2BF
:1043E00052B2120291B23A7C92B20A4392B29A81CC
:1043F000204B1B68FA7CD2B252B2120291B2BA7C44
:1044000092B20A4392B2DA811A4B1B687A7DD2B219
:1044100052B2120291B23A7D92B20A4392B21A8219
:10442000144B1B68FA7DD2B252B2120291B2BA7D1D
:1044300092B20A4392B25A820E4B1B687A7ED2B273
:1044400052B2120291B23A7E92B20A4392B29A8268
:10445000084B1B68FA7ED2B252B2120291B2BA7EF7
:1044600092B20A4392B2DA82FB7F5BB218462037DF
:10447000BD4680BD4002002080B584B000AF034639
:10448000FB710023FB730023BB731A4B1B68002BCB
:1044900002D1FF23FB7326E007F10E03F420194637
:1044A000012200F037FC0346002B01D0FF23FB73F1
:1044B000BB7BDBB203F01F03DAB2FB795B01DBB23B
:1044C0001343DBB2DBB2BB73BB7BF420194600F0B5
:1044D000DFFB0346002B02D0FF23FB7303E0054BF9
:1044E0001B68FA799A77FB7B5BB218461037BD469A
:1044F00080BD00BF4002002080B584B000AF0346FD
:10450000FB710023FB730023BB731B4B1B68002B49
:1045100002D1FF23FB7329E007F10E03F4201946B3
:10452000012200F0F7FB0346002B01D0FF23FB73B1
:10453000BB7BDBB223F01C03DAB2FB799B00DBB25E
:1045400003F01C03DBB21343DBB2DBB2BB73BB7BF8
:10455000F420194600F09CFB0346002B02D0FF23F9
:10456000FB7303E0044B1B68FA79DA77FB7B5BB2E1
:1045700018461037BD4680BD4002002090B585B07A
:1045800002AF0023FB710023BB7100237B711B4B27
:104590001B68002B02D1FF23FB7128E0174B1B681F
:1045A0009B7F5B01DAB2154B1B68DB7F9B00DBB2A4
:1045B0001344DBB20133BB71BB79F420194600F020
:1045C00067FB0346002B02D0FF23FB710FE07B1D2E
:1045D000184600F019F80A4B1A687B791C4600232C
:1045E0000093104600212246064BFBF7F5FFFB79AE
:1045F0005BB218460C37BD4690BD00BF400200209C
:10460000F8030020E54D000080B485B000AF78606D
:104610000023FB73174B1B689B7F1A4601239340B3
:104620005A10144B1B68DB7F194601238B405B102B
:104630001A441346DB0013449B00134403F1140295
:104640000C4B1B68DB7F002B01D00A2300E000230A
:1046500013440F33002B00DA0F331B11DAB27B68DF
:104660001A70FB7B5BB218461437BD465DF8047BBD
:10467000704700BF4002002080B584B000AF786072
:1046800039600023FB730023BB600023BB81194BFF
:104690001B68002B02D1FF23FB7324E007F1080302
:1046A000F7201946062200F035FB0346002B02D006
:1046B000FF23FB7317E03B7A1A037B7A1B0113433A
:1046C000BA7A1209D2B213431A467B681A60FB7A8F
:1046D0001A033B7B1B0113437A7B1209D2B21343AB
:1046E0001A463B681A60FB7B5BB218461037BD4622
:1046F00080BD00BF400200202DE9B04388B000AF6C
:1047000078604FF000024FF00003C7E906234FF036
:1047100000024FF00003C7E904234FF000024FF0FE
:104720000003C7E90223786801F0A4F902460B46AA
:10473000104619464FF00002634B01F02BFB024676
:104740000B4614461D46614B1B681B88184601F03A
:1047500081F902460B46104619464FF000025C4BA9
:1047600001F018FB02460B462046294601F034F8BA
:1047700002460B4614461D46544B1B685B881BB211
:10478000184601F077F902460B462046294601F00B
:10479000D7F902460B46C7E90623786801F06AF9A3
:1047A00002460B46104619464FF000024FF0824376
:1047B00001F0F0FA02460B4614461D46434B1B68B7
:1047C0001B88184601F046F902460B46104619466A
:1047D0004FF000023F4B01F0DDFA02460B46204647
:1047E000294600F0F9FF02460B4614461D4678683C
:1047F00001F040F902460B46104619464FF0000200
:104800004FF0824301F0C6FA02460B4690469946A5
:104810002E4B1B681B88184601F01CF902460B46FC
:10482000104619464FF000022A4B01F0B3FA024637
:104830000B464046494600F0CFFF02460B46204655
:10484000294601F07DF902460B4614461D461F4BD2
:104850001B689B881BB2184601F00CF902460B46F8
:104860002046294601F06CF902460B46C7E90423AD
:10487000164B1C68D7E90601D7E9042300F0AEFF08
:1048800002460B461046194601F0F4FB0346A361AD
:10489000D7E90601D7E9042300F0A0FF02460B4642
:1048A000104619464FF000020B4B01F073FA024616
:1048B0000B46C7E90223D7E90223104619462037E1
:1048C000BD46BDE8B08300BF0000D04040020020DC
:1048D000000090400000C0400000B4400000000014
:1048E000B0B588B000AF78604FF000024FF0000321
:1048F000C7E906234FF000024FF00003C7E9042385
:104900004FF000024FF00003C7E902237F4B1B6802
:104910009B69184601F0AEF802460B461046194650
:104920004FF000024FF0804301F034FA02460B468C
:10493000104619464FF00002754B00F04DFF02463D
:104940000B46C7E90623D7E90601D7E9062301F09C
:10495000F7F802460B4614461D466C4B1B681B8A33
:104960001BB2184601F086F802460B46204629463F
:1049700001F0E6F802460B46104619464FF00002D9
:10498000644B01F007FA02460B46C7E904235F4B6C
:104990001B68DB891BB2184601F06CF802460B4617
:1049A00010461946D7E9062301F0CAF802460B461D
:1049B0001046194600F012FF02460B46D7E90401E3
:1049C00000F00CFF02460B46C7E90423D7E90401B7
:1049D0004FF00002504B01F0DDF902460B46144641
:1049E0001D464A4B1B689B891BB2184601F042F8D2
:1049F00002460B46104619464FF00002474B01F0A5
:104A00009FF802460B462046294600F0E7FE024684
:104A10000B46C7E904233D4B1B685B891BB2184654
:104A200001F028F802460B4610461946D7E906233E
:104A300001F086F802460B4610461946D7E90623D0
:104A400001F07EF802460B46104619464FF0000270
:104A5000334B01F09FF902460B4614461D462B4B83
:104A60001B681B891BB2184601F004F802460B466E
:104A700010461946D7E9062301F062F802460B46B4
:104A80002046294600F0AAFE02460B46104619466B
:104A90004FF00002224B01F07DF902460B46C7E9B8
:104AA0000623D7E906014FF000021A4B01F072F914
:104AB00002460B46104619464FF00002194B00F013
:104AC0008DFE02460B4614461D46104B1B68DB88C4
:104AD000184600F0BFFF02460B462046294601F06B
:104AE0002FF802460B46C7E90623D7E906014FF027
:104AF00000024FF0000301F08BFA0346002B13D0A5
:104B00004FF000024FF00003AAE000BF4002002077
:104B10000040EF400000E040000010400000F04086
:104B2000000020410000F03F786800F0A3FF02463B
:104B30000B464FF00000504900F04EFE02460B4677
:104B4000C7E90223D7E904014FF000024B4B01F003
:104B500021F902460B46D7E9020100F03DFE02466C
:104B60000B461046194642A3D3E9002300F0E8FFA4
:104B700002460B4610461946D7E9062301F00AF90A
:104B800002460B46C7E902233D4B1B68DB8A1BB27A
:104B9000184600F06FFF02460B4610461946D7E94B
:104BA000022300F0CDFF02460B4610461946D7E916
:104BB000022300F0C5FF02460B46104619464FF08F
:104BC0000002304B01F0E6F802460B46C7E9062327
:104BD0002B4B1B689B8A1BB2184600F04BFF02460A
:104BE0000B4610461946D7E9022300F0A9FF0246FA
:104BF0000B46104619464FF00002234B01F0CAF84D
:104C000002460B46C7E90423D7E90601D7E9042386
:104C100000F0E4FD02460B4614461D46184B1B6887
:104C20005B8A1BB2184600F025FF02460B46204661
:104C3000294600F0D3FD02460B46104619464FF0B8
:104C40000002124B01F0A6F802460B46D7E902011A
:104C500000F0C4FD02460B46C7E90223D7E9022350
:104C6000104619462037BD46B0BD00BFAFF30080E7
:104C700000000000006AB840000030410000B04071
:104C8000400200200000E0410000E0400000304011
:104C900080B485B000AF03460A46FB711346BB7172
:104CA0000023FB731A4BEC225A62194B01225A6003
:104CB00000BF174B9B6A03F04003002BF9D0144B45
:104CC00040221A63124AFB79536200BF104B9B6A61
:104CD00003F04003002BF9D00D4B40221A630C4A1D
:104CE000BB79536200BF0A4B9B6A03F04003002B61
:104CF000F9D0074B40221A63054B02225A60FB7B16
:104D00005BB218461437BD465DF8047B704700BFA0
:104D100000A4004080B485B000AF03463960FB7149
:104D20001346BB710023BB732D4BEC225A622C4BF4
:104D300001225A6000BF2A4B9B6A03F04003002BFC
:104D4000F9D0274B40221A63254AFB79536200BFF2
:104D5000234B9B6A03F04003002BF9D0204B4022E9
:104D60001A631F4B01225A601D4BED225A6200BF8D
:104D70001B4B9B6A03F04003002BF9D0184B4022D9
:104D80001A630023FB7318E000BF154BDB6803F4C4
:104D90008073002BF9D0FB7B3A681344104AD26928
:104DA000D2B21A70FA7BBB79013B9A4202D00C4B0B
:104DB00004225A60FB7B0133FB73FA7BBB799A4276
:104DC000E2D3074B08225A60054B02225A60BB7B94
:104DD0005BB218461437BD465DF8047B704700BFD0
:104DE00000A4004080B588B000AF786007F11C02D5
:104DF00007F1180310461946FFF73EFCBB69184639
:104E0000FFF77AFC02460B46C7E90223FB69184606
:104E1000FFF766FD02460B46C7E904230320002185
:104E2000FFF7B4F9094B1B78012B0BD107F10803ED
:104E30000220194600F07AFA07F110030320194600
:104E400000F074FA2037BD4680BD00BF600000202E
:104E500080B483B000AF03463960FB71FB79002B4F
:104E60000DD0FB79012B0AD0FB79022B07D0FB79FF
:104E7000032B04D0FB79042B01D0FB79052B0949C6
:104E8000FA793B68012000FA03F318461346DB0069
:104E900013449B000B44103358600C37BD465DF83B
:104EA000047B70470060004080B483B000AF0346CD
:104EB0003960FB71FB79002B0DD0FB79012B0AD0F7
:104EC000FB79022B07D0FB79032B04D0FB79042B51
:104ED00001D0FB79052B0949FA793B68012000FADA
:104EE00003F318461346DB0013449B000B441033B6
:104EF00018600C37BD465DF8047B704700600040C9
:104F000080B500AF0420022104220023FDF700FD3C
:104F10000420032104220023FDF7FAFC80BD00BF1A
:104F200080B582B000AF0346FB71FB79012B0CD832
:104F3000FB79074A12F81310FB79054A5B0013440A
:104F40005B7808461946FFF783FF0837BD4680BDEA
:104F5000786A000080B582B000AF0346FB71FB7930
:104F6000012B0CD8FB79074A12F81310FB79054A7C
:104F70005B0013445B7808461946FFF795FF083736
:104F8000BD4680BD786A000080B483B000AF0346A0
:104F9000FB71084997F907305B09FA7902F01F02A3
:104FA000012000FA02F241F823200C37BD465DF8DB
:104FB000047B704700E100E080B483B000AF03469B
:104FC000FB71094997F907305B09FA7902F01F0272
:104FD000012000FA02F2603341F823200C37BD466D
:104FE0005DF8047B704700BF00E100E080B483B04F
:104FF00000AF7860044A7B68C2F81C310C37BD46AC
:105000005DF8047B704700BF0060004090B585B03C
:1050100002AF396011461A460346FB710B46BB715D
:1050200013467B71FA79BC797B7900933B7E0193BF
:10503000104639683A682346FDF702FC0C37BD4636
:1050400090BD00BF80B582B002AF0C48FBF72EFACE
:105050000320012101220023FDF75AFC01230093C4
:105060000320012101220023FFF7D0FF0B20FFF7CF
:10507000A3FF0B20FFF788FFBD4680BD4402002040
:1050800080B582B002AFFCF707FF104B1B78022BF4
:105090000AD10E4B01221A700D4B1B78012B03D144
:1050A00004200A4900F042F90A4B1A6800230093D1
:1050B0001046002141F28832074BFBF78DFA02209F
:1050C000FFF794FFFCF7F0FEBD4680BD54000020C2
:1050D0006000002044020020DD50000080B582B056
:1050E00000AF7860044B02221A700420024900F0DD
:1050F0001DF90837BD4680BD5400002080B584B03E
:1051000002AF204B01221A701F4B1B6801331E4A4D
:1051100013601D4B19681D4BA3FB01231A0913468D
:105120009B0013449B00CA1A174B1A60164B1A684F
:1051300013469B0013449B00154A1344184601F084
:10514000FBFA7860104B1A6813469B0013449B00CF
:105150000F4A13443B600F4A0E4B1B6843F4005345
:1051600013600220FEF7B8FF7B68013B3A680092AB
:105170000193012001210022074BFDF713F80837A6
:10518000BD4680BD230200205C000020CDCCCCCCED
:105190004802002000400840284008402DE9F04324
:1051A00085B000AFB9607A603B600346FB73FB7B60
:1051B000023B042B00F2B18001A252F823F000BFA1
:1051C000D551000041520000D3520000EB520000C4
:1051D000035300007B6802221A707B685C1CBB686A
:1051E000D3E900231046194600F06CFF0346DBB2FA
:1051F00023707B689E1CBB68D3E900457B68013344
:105200001B78184600F036FC02460B46204629461D
:1052100000F0E2FA02460B46104619464FF0000233
:10522000404B00F08DFC02460B461046194600F03C
:1052300049FF0346DBB233703B6803221A706DE00E
:105240007B6803221A707B685C1CBB68D3E900236F
:10525000104619464FF00002334B00F09BFD02460A
:105260000B461046194600F02DFF0346DBB22370B3
:105270007B689C1CBB68D3E90023104619464FF09D
:105280000002294B00F086FD02460B4690469946E7
:105290007B6801331B78184600F0ECFB02460B4696
:1052A0004046494600F098FA02460B461046194619
:1052B0004FF000021B4B00F043FC02460B46104629
:1052C000194600F0FFFE0346DBB2237003233B6068
:1052D00024E07B6884221A707B680133BA681278F4
:1052E0001A703B6802221A7018E07B6885221A70D7
:1052F0007B680133BA6812781A703B6802221A7010
:105300000CE07B6886221A707B680133BA681278D9
:105310001A703B6802221A7000E000BF1437BD46C5
:10532000BDE8F0830000594000408F4090B589B03F
:1053300000AF03463960FB7107F10C0300221A60CD
:10534000043300221A60043300221A60043300225E
:105350001A60043300221A600433FCF79DFDF979CA
:1053600007F10C0207F10B0308463968FFF716FF37
:105370001E4B1B6801331D4A13601C4B19681C4BE4
:10538000A3FB01231A0913469B0013449B00CA1A6E
:10539000164B1A60154B1A6813469B0013449B006A
:1053A000144A134418461449142201F0CDF90F4B46
:1053B0001A6813469B0013449B000E4A1A44FB7A5A
:1053C0001C4607F10C0310461946224601F0BCF9B1
:1053D0000A4B1B7883F00103DBB2002B01D0FFF7EF
:1053E0008DFEFCF761FD2437BD4690BD58000020BE
:1053F000CDCCCCCC480200207C6A000023020020E7
:1054000080B582B000AF03463A60FB710B46BB71BA
:10541000FCF742FD174AFB79012101FA03F3194613
:1054200002F5805308331960134A134B1B6823F4A9
:10543000005313600220FEF767FE104B1A681346F4
:105440009B0013449B000E4A134418460D49142236
:1054500001F07AF90C4B00221A70084B1A680B4BBA
:105460001B689A4201D0FFF749FEFCF71DFD083783
:10547000BD4680BD00200C40004008405C0000207C
:10548000480200207C6A000023020020580000200F
:1054900080B584B002AF03463A60FB710B46BB7126
:1054A000FCF7FAFC0C4AFB79012101FA03F31946D7
:1054B00002F5805308331960084B009300230193D1
:1054C000022001210022064BFCF76CFEFCF7ECFCED
:1054D0000837BD4680BD00BF00200C401C4008407E
:1054E0006000002080B483B000AF03463960FB71D8
:1054F000FB79002B0DD0FB79012B0AD0FB79022B15
:1055000007D0FB79032B04D0FB79042B01D0FB7966
:10551000052B0949FA793B68012000FA03F3184684
:105520001346DB0013449B000B44103318600C3708
:10553000BD465DF8047B70470060004080B483B0D6
:1055400000AF786039607B683A689A620C37BD4674
:105550005DF8047B704700BF80B483B000AF786013
:105560007B681B6A18460C37BD465DF8047B7047A4
:1055700080B400AF034B1B6A1846BD465DF8047B40
:10558000704700BF00C0084080B500AFFAF7D4FFF5
:105590000F48FAF78BFFFEF7FBF9FEF751FCFEF719
:1055A00041FAFEF7BDF9FEF7E5FA0A480A49FEF7A7
:1055B00089FBFEF7B9FCFFF745FDFFF7A1FC0220D0
:1055C000FEF78AFD05480121FDF75AFF80BD00BFA7
:1055D000F8030020F55600000157000000200840A5
:1055E00080B500AF334B1B7883F00103DBB2002B97
:1055F0002BD0304B01221A70FDF76CFE00BFFFF775
:10560000B7FF034603F01003002BF8D12A4A2A4BB8
:10561000D3F8243323F4DF4323F07F03C2F8243389
:10562000254A254BD3F8243343F4C04343F03703D2
:10563000C2F82433204A204BD3F8283323F4803394
:10564000C2F82833FDF72CFE2AE01A4B00221A700C
:10565000FDF740FE00BFFFF78BFF034603F010038A
:10566000002BF8D1144A144BD3F8243323F4DF432E
:1056700023F07F03C2F824330F4A0F4BD3F82433AF
:1056800043F4005343F03C03C2F824330A4A0A4B64
:10569000D3F8283343F48033C2F82833FDF700FEF3
:1056A000064B1B78012B03D105200249FFF73EFE74
:1056B00080BD00BF6100002000C0084060000020E5
:1056C00080B500AF0A4B1B78022B06D10120FFF7F3
:1056D00041FC074B01221A7005E00120FFF720FC76
:1056E000034B02221A7006200149FFF71FFE80BDFE
:1056F0006200002080B400AFBD465DF8047B7047B7
:1057000080B582B000AF78607B6803F04003002B67
:1057100001D0FFF765FF7B6803F47063002B01D0B5
:10572000FFF7CEFF0837BD4680BD00BF80B582B011
:1057300000AFFCF7B1FB0F48FFF70EFF78600D4894
:105740007968FFF7FBFE7B6803F00103002B04D0B0
:1057500003200021FFF7C6FE07E07B6803F0020389
:10576000002B02D00448FEF769FDFCF79DFB0837CB
:10577000BD4680BD00200840D803002080B582B01F
:1057800000AF0C4B1B687B603B461846FEF78EF85B
:105790007B681B0E0F2B0AD93B78032B07D1064AD7
:1057A000054B1B6823F0500343F0100313600837C8
:1057B000BD4680BDFC81E00FC0800C4080B500AFCD
:1057C000FFF7DCFFFFF7E0FEFEF7BCFCFCE700BFE5
:1057D00081F0004102E000BF83F0004330B54FEAA2
:1057E00041044FEA430594EA050F08BF90EA020F0F
:1057F0001FBF54EA000C55EA020C7FEA645C7FEAA2
:10580000655C00F0E2804FEA5454D4EB5555B8BFC4
:105810006D420CDD2C4480EA020281EA030382EA35
:10582000000083EA010180EA020281EA0303362DC7
:1058300088BF30BD11F0004F4FEA01314FF4801C9A
:105840004CEA113102D0404261EB410113F0004FAC
:105850004FEA03334CEA133302D0524263EB430363
:1058600094EA050F00F0A780A4F10104D5F1200E01
:105870000DDB02FA0EFC22FA05F2801841F100015C
:1058800003FA0EF2801843FA05F359410EE0A5F130
:1058900020050EF1200E012A03FA0EFC28BF4CF061
:1058A000020C43FA05F3C01851EBE37101F0004517
:1058B00007D54FF0000EDCF1000C7EEB00006EEB24
:1058C0000101B1F5801F1BD3B1F5001F0CD34908AE
:1058D0005FEA30004FEA3C0C04F101044FEA445205
:1058E00012F5800F80F09A80BCF1004F08BF5FEA8C
:1058F000500C50F1000041EB045141EA050130BD6C
:105900005FEA4C0C404141EB010111F4801FA4F10E
:105910000104E9D191F0000F04BF01460020B1FA63
:1059200081F308BF2033A3F10B03B3F120020CDA9B
:105930000C3208DD02F1140CC2F10C0201FA0CF079
:1059400021FA02F10CE002F11402D8BFC2F1200CDE
:1059500001FA02F120FA0CFCDCBF41EA0C01904094
:10596000E41AA2BF01EB0451294330BD6FEA0404DD
:105970001F3C1CDA0C340EDC04F11404C4F12002C8
:1059800020FA04F001FA02F340EA030021FA04F3DA
:1059900045EA030130BDC4F10C04C4F1200220FA31
:1059A00002F001FA04F340EA0300294630BD21FA6F
:1059B00004F0294630BD94F0000F83F4801306BF35
:1059C00081F480110134013D4EE77FEA645C18BF29
:1059D0007FEA655C29D094EA050F08BF90EA020FC0
:1059E00005D054EA000C04BF1946104630BD91EAB8
:1059F000030F1EBF0021002030BD5FEA545C05D1BB
:105A00004000494128BF41F0004130BD14F58004F9
:105A10003CBF01F5801130BD01F0004545F0FE416D
:105A200041F470014FF0000030BD7FEA645C1ABFA2
:105A3000194610467FEA655C1CBF0B46024650EAD9
:105A4000013406BF52EA033591EA030F41F4002105
:105A500030BD00BF90F0000F04BF0021704730B58B
:105A60004FF4806404F132044FF000054FF0000160
:105A700050E700BF90F0000F04BF0021704730B521
:105A80004FF4806404F1320410F0004548BF4042F6
:105A90004FF000013EE700BF42004FEAE2014FEA4B
:105AA00031014FEA02701FBF12F07F4393F07F4F26
:105AB00081F06051704792F0000F14BF93F07F4F58
:105AC000704730B54FF4607401F0004521F000419B
:105AD00020E700BF50EA010208BF704730B54FF021
