S00C000043414554452E73333786
S113000000800020B1010000DD010000DD010000DE
S1130010DD010000DD010000DD010000DD01000064
S1130020DD010000DD010000DD010000DD01000054
S1130030DD010000DD010000DD010000DD01000044
S1130040E91D0000DD010000DD010000DD0100000C
S1130050DD010000DD010000DD010000DD01000024
S1130060DD010000DD010000DD0100007D3600003F
S1130070DD010000DD010000DD010000DD01000004
S1130080DD01000085270000DD010000DD01000026
S1130090DD010000DD010000DD010000DD010000E4
S11300A0DD010000DD010000313A0000DD01000047
S11300B0DD010000DD01000029090000DD01000070
S11300C0DD010000DD010000DD010000DD010000B4
S11300D0DD010000DD010000DD010000DD010000A4
S11300E010B5054C237833B9044B13B10448AFF36E
S11300F000800123237010BDC00000200000000018
S1130100AC4A0000084B10B51BB108480849AFF3CE
S113011000800848036803B910BD074B002BFBD0CF
S1130120BDE81040184700BF00000000AC4A0000C2
S1130130C4000020B800002000000000154B002B74
S113014008BF134B9D46A3F5803A00218B460F460A
S11301501348144A121A04F073FC0F4B002B00D0FE
S113016098470E4B002B00D0984700200021040034
S11301700D000D48002802D00C48AFF3008004F0B5
S113018039FC2000290003F09BFC04F01FFC00BF95
S113019000000800008000200000000000000000B3
S11301A0C0000020A00300200000000000000000A8
S11301B0064880470649074A074B9A42BEBF51F892
S11301C0040B42F8040BF8E7FFF7B8FF5D030000E7
S11301D0B84A000000000020BC000020FEE700BF79
S11301E080B400AF044BDB6C1B0EDBB21846BD467B
S11301F05DF8047B704700BFB081E00F80B582B02A
S113020000AF00F01FF87860074B5B6803F00F0342
S11302101A467B68D3407B60044A7B6813607B6822
S113022018460837BD4680BD00800C40E001002020
S113023080B400AF024B1846BD465DF8047B70479E
S1130240006CDC0280B582B000AF334BDB6A03F490
S11302507053B3F5805F0AD0B3F5005F03D0B3F5F4
S1130260006F08D00BE02D4B1B687B6047E04FF418
S113027000437B6043E02A4B1B687B603FE0264BD6
S1130280DB6803F4E063B3F5007F1BD0B3F5007FB4
S113029005D8002B24D0B3F5807F16D02BE0B3F51E
S11302A0806F09D0B3F5A06F03D0B3F5407F06D0BB
S11302B021E01C4B7B6021E01B4B7B601EE01B4B51
S11302C07B601BE01A4B7B6018E0FFF789FF034655
S11302D0122B02D9174B7B6010E0174B7B600DE0AB
S11302E0FFF77EFF0346122B02D9144B7B6005E017
S11302F0134B7B6002E000237B6000BF00BF064B12
S11303001B6803F4E0339B0B01337A68B2FBF3F30D
S113031018460837BD4680BD00800C40040000200C
S113032000000020003FAB01406F4001809FD500DA
S1130330C0D8A70040B56400C0CF6A00804F120047
S113034040420F0080B400AF034B1B681846BD4603
S11303505DF8047B704700BF0000002080B400AF4C
S1130360BD465DF8047B704780B400AF4FF4004392
S11303701846BD465DF8047B704700BF80B400AFEB
S11303804FF47A731846BD465DF8047B704700BF8E
S113039080B400AF034B1B681846BD465DF8047B70
S11303A0704700BF0400002080B483B000AF034650
S11303B0FB71084997F907305B09FA7902F01F02CB
S11303C0012000FA02F241F823200C37BD465DF803
S11303D0047B704700E100E080B483B000AF0346C3
S11303E0FB71094997F907305B09FA7902F01F029A
S11303F0012000FA02F2603341F823200C37BD4695
S11304005DF8047B704700BF00E100E080B400AFFA
S1130410034B5B681846BD465DF8047B704700BF1C
S11304200000084080B483B000AF7860034A7B6862
S113043093610C37BD465DF8047B704700000840AB
S113044080B483B000AF78600549054BDA697B68F6
S1130450DB431340CB610C37BD465DF8047B70472A
S11304600000084080B483B000AF78600549054BB4
S1130470DA697B681343CB610C37BD465DF8047BB6
S1130480704700BF0000084080B483B000AF064B43
S1130490DB697B60044B1A697B68134018460C3790
S11304A0BD465DF8047B70470000084080B586B007
S11304B000AF786000237B6100233B6101F0ECFB1B
S11304C0F86002E07B6901337B617B69032B0ADC02
S11304D016497A6913469B001344DB000B44183316
S11304E09B79002BEED17B69042B02D1104B3B612D
S11304F014E07B68002B0FD00C497A6913469B00EB
S11305001344DB000B44183301229A717A697B6827
S11305101A6000233B6101E0064B3B61F86801F07F
S1130520CBFB3B6918461837BD4680BDE000002070
S1130530011000F0041000F080B500AF1D4B1B78D3
S1130540002B01D0002332E01A4B01221A701A4802
S1130550012100F0CFFF1948022101F0D1F9184818
S1130560082100F0AFFE1648012100F0C3FF154832
S113057002F026F80720FFF763FF0720FFF752FF7A
S113058002F046F81E20FFF727FF1E20FFF70CFF9E
S11305900D480021A02204F053FA0C4B00221A70DB
S11305A00B4B00221A700B4B00221A6000231846D2
S11305B080BD00BF8A0100200043020002001A002F
S11305C060161000A04A0000E0000020880100200E
S11305D08901002084010020B0B58EB000AFF8601E
S11305E07A603B600B46FB720023FB62FB68032BC3
S11305F001D98D4B8BE101F04FFBB8628B49FA684E
S113060013469B001344DB000B4418339B7983F09F
S11306100103DBB2002B04D0B86A01F04DFB844B1C
S113062075E17B68002B0BD13B68002B03D03B6842
S1130630F868B96C9847B86A01F03EFB002366E19C
S1130640FFF7E4FE38637949FA6813469B001344C4
S1130650DB000B4418333A681A607B681A464FF083
S11306600003DD0345EA5245D40314F57A6245F1EB
S11306700003104619464FF4FA524FF0000303F0FA
S1130680CDFE02460B4610461946684CFA681346DE
S11306909B001344DB0023440833C3E90001FB7AC5
S11306A0012B27D17B684FF47A7202FB03F15F4878
S11306B0FA6813469B001344DB0003440833D3E970
S11306C00023F42303FB02F3CB1A18465749FA68B4
S11306D013469B001344DB000B441033186053494A
S11306E0FA6813469B001344DB000B4410337A2250
S11306F05A6017E04D49FA6813469B001344DB0027
S11307000B440833D3E9002312F1FF3043F1FF31E6
S1130710464CFA6813469B001344DB002344083319
S1130720C3E900014149FA6813469B001344DB0006
S11307300B440833D3E90023501C43F100013B4C24
S1130740FA6813469B001344DB002344C3E9000109
S11307503649FA6813469B001344DB000B441833F4
S113076001221A713149FA6813469B001344DB00D5
S11307700B441833FA7ADA712C49FA6813469B0051
S11307801344DB000B442033BA6C1A60294B1B78EA
S1130790002B04D0B86A01F08FFA0023B7E0264B8F
S11307A01B68B3F1FF3F04D0234B1B680133224A7B
S11307B01360224B1B7883F00103DBB2002B43D080
S11307C03B6B23F07F431E4A13600220FFF72AFE8F
S11307D01649FA6813469B001344DB000B44D3E923
S11307E00023C7E90823174BFB61FB6918464FF048
S11307F00001D7E908238B4208BF824201D2104688
S113080019460346BB613A6BBB69134423F07F432B
S11308100020194601F09EFE0220FFF723FE074B3D
S113082001221A7066E000BF021000F0E000002010
S1130830031000F0880100208401002089010020B9
S1130840800100209BFFFF00334B1B68012B51D11B
S11308503249FA6813469B001344DB000B441833F7
S113086000221A710220FFF7EBFD3B6B1A022C4B9E
S11308701B681B02D31A1B0A7B637B6B6FF07F42DE
S1130880934201D100237B63786B00F0A7F800F05A
S1130890F9F9FB6A002B09D12049FA6813469B0039
S11308A01344DB000B44183301221A71FB6A013331
S11308B0FB62386B00F018FAFFF7A8FD38633B6B56
S11308C01A02174B1B681B02D31A1B0A7B630020F6
S11308D001F022FE03461A02114B1B681B02D31AB5
S11308E01B0A7B610F4B1B78002B03D07A6B7B694F
S11308F09A42B7D8084B1B68002B04D0064B1B68E0
S1130900013B054A1360B86A01F0D6F90023184682
S11309103837BD46B0BD00BF84010020E000002090
S1130920800100208901002080B586B000AF01F06D
S1130930B3F93861FFF7A8FDF860FB6823F00303FF
S11309401846FFF76FFDFB6803F00203002B39D054
S11309501F4B01221A70FFF759FD78610220FFF73F
S11309606FFD7B691A021B4B1B681B02D31A1B0AFF
S1130970BB60B86800F032F800F084F9786900F0E0
S1130980B3F9FFF743FD78617B691A02114B1B68C9
S11309901B02D31A1B0ABB60002001F0BDFD0346F5
S11309A01A020C4B1B681B02D31A1B0A7B600A4BEE
S11309B01B78002B03D0BA687B689A42CED8044BCC
S11309C000221A70386901F077F91837BD4680BDE6
S11309D088010020800100208901002090B484B0A7
S11309E000AF78600023FB6041E1A549FA68134633
S11309F09B001344DB000B44183300225A71A049B6
S1130A00FA6813469B001344DB000B4418331B792C
S1130A10002B00F029819A49FA6813469B0013447D
S1130A20DB000B44D3E90023796808464FF000014A
S1130A30994208BF904219D29149FA6813469B0023
S1130A401344DB000B44D3E900017B681A464FF0E2
S1130A500003801A61EB0301894CFA6813469B007A
S1130A601344DB002344C3E90001FDE08449FA6830
S1130A7013469B001344DB000B441833DB79002B33
S1130A800AD17F49FA6813469B001344DB000B44E8
S1130A90183300221A71D2E07949FA6813469B0090
S1130AA01344DB000B440833D3E900017B681A4686
S1130AB04FF00003801A61EB0301714CFA6813468E
S1130AC09B001344DB002344D3E90023801841EB4B
S1130AD003016B4CFA6813469B001344DB00234468
S1130AE0C3E900016649FA6813469B001344DB001E
S1130AF00B4410331B68002B50DD6149FA68134620
S1130B009B001344DB000B44103359685C48FA68BB
S1130B1013469B001344DB00034410331B68194441
S1130B205748FA6813469B001344DB000344103310
S1130B3059605349FA6813469B001344DB000B4485
S1130B4010335B68F32B7AD94D49FA6813469B003E
S1130B501344DB000B44D3E90023501C43F1000190
S1130B60474CFA6813469B001344DB002344C3E953
S1130B7000014349FA6813469B001344DB000B440D
S1130B8010335B68A3F1F4013D48FA6813469B00F7
S1130B901344DB0003441033596050E03849FA68C9
S1130BA013469B001344DB000B441033596834484C
S1130BB0FA6813469B001344DB00034410331B689C
S1130BC0C91A2F48FA6813469B001344DB000344F8
S1130BD0103359602A49FA6813469B001344DB001A
S1130BE00B4410335B68F32B29D92549FA68134663
S1130BF09B001344DB000B44D3E9002312F1FF30C4
S1130C0043F1FF311E4CFA6813469B001344DB008A
S1130C102344C3E900011A49FA6813469B001344AC
S1130C20DB000B4410335B68A3F1F4011448FA6849
S1130C3013469B001344DB000344103359601049EE
S1130C40FA6813469B001344DB000B4418331B68FB
S1130C50002B09D00A49FA6813469B001344DB00B1
S1130C600B44183301225A71FB680133FB60FB68A3
S1130C70032B7FF7BAAE1037BD4690BC704700BF58
S1130C80E000002090B583B000AF00237B6022E039
S1130C9014497A6813469B001344DB000B44183351
S1130CA05B79002B14D00F497A6813469B001344D8
S1130CB0DB000B4418331C6878680A497A681346C9
S1130CC09B001344DB000B4420331B681946A047E8
S1130CD07B6801337B607B68032BD9DD0C37BD4611
S1130CE090BD00BFE000002080B58AB000AF7860FE
S1130CF04FF0FF324FF0FF33C7E9062300237B6236
S1130D0027E037497A6A13469B001344DB000B44FF
S1130D1018331B79002B19D031497A6A13469B008A
S1130D201344DB000B44D3E90001D7E906239942BD
S1130D3008BF90420AD22A497A6A13469B00134498
S1130D40DB000B44D3E90023C7E906237B6A0133A4
S1130D507B627B6A032BD4DD224B00221A70D7E915
S1130D600623B3F1FF3F08BFB2F1FF3F35D0D7E907
S1130D700623C7E904231C4BFB60FB681A464FF0AB
S1130D800003D7E90401994208BF904201D2024608
S1130D900B46C7E90623154B1B7883F00103DBB22E
S1130DA0002B05D07B6823F07F43114A136002E0D7
S1130DB00F4A7B6813600220FFF734FBBA697B6833
S1130DC0134423F07F430020194601F0C3FB054B75
S1130DD001221A700220FFF745FB2837BD4680BD6B
S1130DE0E0000020890100209BFFFF008801002013
S1130DF08001002080B487B000AFF860B9607A60E9
S1130E00FB6803F10473DA00BB6813449B007B6145
S1130E107B697A681A601C37BD465DF8047B7047AD
S1130E2080B485B000AF786039607B6803F10473E7
S1130E30DA003B6813449B00FB60FB681B681846A0
S1130E401437BD465DF8047B704700BF80B485B09D
S1130E5000AF78607B68002B04D07B68B3F5004F4B
S1130E6000D800BF7B68B3FA83F3C3F11F03FB60B0
S1130E70FB6818461437BD465DF8047B704700BF15
S1130E8080B400AF044BDB6C1B0EDBB21846BD46CE
S1130E905DF8047B704700BFB081E00F80B400AF01
S1130EA0054BDB6C03F47F031B0CDBB21846BD4619
S1130EB05DF8047B704700BFB081E00F80B582B05D
S1130EC000AFFFF7EBFF03464A2B04D0792B02D087
S1130ED0482B21D022E0144B1B699BB203F03F0343
S1130EE09BB21B02FB80104B9B6903F0F0039AB288
S1130EF0FB881343FB800C4BDB6903F0F0031B09F5
S1130F009AB2FB881343FB80FB88B3F5017F01D3BE
S1130F10064B04E0064B02E0054B00E000231846B4
S1130F200837BD4680BD00BFD0FF0FE000366E011C
S1130F300048E80180B584B000AF786039607A6811
S1130F403B689A428CBF01230023DBB2FB60064856
S1130F501E21FA68FFF74EFF04480821FA68FFF7DC
S1130F6049FF1037BD4680BD00800C4004800C4012
S1130F7080B582B000AF07481E21FFF751FF7860AB
S1130F8005480821FFF74CFF38607B68184608378E
S1130F90BD4680BD00800C4004800C4080B582B00A
S1130FA000AF214B5B6903F4E063B3F5007F1CD011
S1130FB0B3F5007F05D8002B25D0B3F5807F1FD073
S1130FC02AE0B3F5C06F24D0B3F5E06F1ED0B3F5BB
S1130FD0407F21D1FFF754FF0346122B02D9134B54
S1130FE07B601CE0124B7B6019E0FFF749FF03466E
S1130FF0122B02D90F4B7B6011E00F4B7B600EE08C
S11310000E4B7B600BE00E4B7B6008E00D4B7B606E
S113101005E00D4B7B6002E000237B6000BF7B6832
S113102018460837BD4680BD00800C40804F120032
S113103040420F0040B56400C0CF6A00C0D8A7008A
S1131040809FD500406F4001003FAB0180B582B066
S113105000AF0D4800F0A6FB0346FB70FB78072B9E
S113106005D0082B07D1FFF7EDF8786006E0FFF70D
S113107095FF786002E000237B6000BF7B68184620
S11310800837BD4680BD00BF06000C0080B485B0A3
S113109000AF7860284BDB6B002B14BF01230023C7
S11310A0BB72254B41F67132DA63234B5B6803F064
S11310B00703FB60FB68012B01D9042B02D1002339
S11310C0FB7202E00123FB7200BF7B681B4A934260
S11310D007D9FB7A002B01D0052300E00423FB6031
S11310E016E07B68154A93420BD87B68144A9342F6
S11310F007D9FB7A002B01D0032300E00123FB6016
S113110006E0FB7A002B01D0022300E00023FB6001
S11311100949094B5B6823F00702FB6813434B60E2
S1131120BB7A002B02D0044B0022DA631437BD468D
S11311305DF8047B704700BF00000C400048E801E4
S11311400024F40080B500AFFFF772F80346184698
S1131150FFF79CFF80BD00BF90B585B000AF7860FD
S11311600023BB607B68344A934203D0334A9342E2
S113117000D000E000BF786800F014FB0346FB6079
S11311807B682D4A934203D02C4A934206D00CE04C
S11311902B4B9B6A03F00303FB6006E0284B9B6A1E
S11311A003F00C039B08FB6000BFFB68032B3AD8D9
S11311B001A252F823F000BFEF110000C911000092
S11311C0D1110000D9110000FFF7CEF8B8602DE06E
S11311D0FFF7DEF8B86029E0FFF710F80446FFF7E0
S11311E0C7FE0346013324FA03F3BB601EE0002369
S11311F0BB607B68104A934203D07B680F4A9342DA
S113120010D10F4B9A6A7B680B498B4201D1102392
S113121000E0142322FA03F3002B03D0FFF7AEF807
S1131220B86003E002E00023BB6000BFBB6818465F
S11312301437BD4690BD00BF02001A0003001C0015
S113124000800C4080B483B000AF7860094B5B6DC4
S113125003F00103002B00D006E000BF054B1A6D1C
S11312607B681340002BF9D10C37BD465DF8047B35
S1131270704700BF00800C4080B582B000AF1048BA
S113128000F090FA0346FB70FB78032B07D0082B81
S113129009D0022B0BD1FFF77BF878600AE0FFF747
S11312A063F8786006E0FEF7CDFF786002E0002383
S11312B07B6000BF7B6818460837BD4680BD00BF11
S11312C007232200B0B584B000AF786039607B6832
S11312D01B0903F00F03FB60FB68013B062B00F2C4
S11312E0F68001A252F823F005130000CF14000089
S11312F0CF1400003913000063130000B71300007B
S11313007B1400003B68002B03D03B68082B00D8FB
S113131000BFFFF717FF70496F4B1B6823F4E032DF
S11313203B68013B9B0313430B60FEF767FFB86008
S1131330B868FFF7ABFECBE03B68002B04D03B68FA
S1131340B3F5007F00D800BF3868FFF77FFD386031
S11313506149614B9B6823F00F023B6813438B6028
S1131360B6E03B68002B04D03B68B3F5007F00D89F
S113137000BFFFF7E7FEFEF765FF02463B68B2FBDE
S1131380F3F4FFF79BFD034620461946FFF7D2FD11
S11313903868FFF75BFD38604F494F4B5B6823F0BB
S11313A00F023B6813434B60FEF728FFB860B86830
S11313B0FFF76CFE8CE07B68484A93421ED0474A94
S11313C0934203D8464A934207D055E0454A934294
S11313D025D0454A93423FD04EE00420FFF732FF28
S11313E03868FFF733FD38603B493B4B9B6E23F075
S11313F0F0023B681B0113438B663DE00420FFF7BA
S113140021FF3868FFF722FD38603349324B9B6E69
S113141023F470623B681B0213438B662CE03B6829
S11314200F2B03D93B68802B00D800BF0420FFF7A3
S113143009FF3868FFF70AFD3860274D264B9B6E7D
S113144023F440541020FFF701FD02463B689B1A29
S11314501B032343AB660FE00420FFF7F3FE386859
S1131460FFF7F4FC38601C491B4B9B6E23F003020E
S11314703B6813438B6600BF2AE07B681B4A934298
S113148003D01B4A934210D020E04020FFF7DAFE3D
S11314903868FFF7DBFC38600F490F4B1B6F23F0F4
S11314A003023B6813430B6710E04020FFF7CAFEBA
S11314B03868FFF7CBFC38600749074B1B6F23F0F4
S11314C030023B681B0113430B6700BF00E000BF01
S11314D01037BD46B0BD00BF00800C40602614002C
S11314E0601610006000260060062A0070071600CF
S11314F07017180090B587B000AF78600B46FB708A
S113150000233B617B681B0A03F00F03013B092B9B
S113151049D801A252F823F05D15000063150000BC
S113152041150000A7150000A7150000691500006B
S113153073150000A7150000A71500007D15000015
S11315401B4B7B611B4800F041F80446FFF7B6FCD7
S1131550034620461946FFF7EDFC12E0164B7B616B
S11315600FE0164B7B610CE0154B7B6101233B6163
S113157007E0144B7B6110233B6102E0124B7B615B
S113158000BF7B681B0B03F01F03FB603B69002B50
S113159002D03869FFF756FEFB787869F9681A4675
S11315A0FFF728FC00E000BF1C37BD4690BD00BF1C
S11315B040800C400043020008800C4044800C40F2
S11315C058800C4060800C4078800C4090B585B009
S11315D000AF78607B6803F47813B3F5B01F00F0B4
S11315E0AB80B3F5B01F1AD8B3F5402F00F0BF801D
S11315F0B3F5402F08D8B3F5003F3CD0B3F5802FA6
S11316002DD0002B27D0BEE0B3F5801F3CD0B3F51E
S1131610A01F47D0B3F5602F00F0AD80B3E0B3F561
S1131620081F00F0AC80B3F5081F0AD8B3F5D01F2B
S113163025D0B3F5E01F7AD0B3F5C01F00F0898040
S1131640A1E0B3F5201F4ED0B3F5281F62D0B3F547
S1131650181F35D097E0FEF7F5FDF86096E0FEF729
S1131660F1FDF8604C4B9B6803F00F031A46FB68CE
S1131670D340FB608AE0FEF7C1FDF86086E047488E
S1131680FFF76AFDF86081E04448FFF765FDF86004
S1131690414B9B6E03F0F0031B091A46FB68D340D1
S11316A0FB6073E03D48FFF757FDF8603A4B9B6ED3
S11316B003F470631B0A1A46FB68D340FB6065E0C1
S11316C03648FFF749FDF860334B9B6E03F44053F3
S11316D01C0B1020FFF7BAFB034623441A46FB6891
S11316E0D340FB6052E02D48FFF736FDF8602A4BEB
S11316F09B6E03F440531B0B1A46FB68D340FB60FC
S1131700254BDB6F03F007030133FA68B2FBF3F3F5
S1131710FB603BE02148FFF71FFDF8601E4B9B6E0A
S113172003F003031A46FB68D340FB602EE01C4819
S1131730FFF712FDF86029E01948FFF70DFDF86086
S1131740154B1B6F03F003031A46FB68D340FB6081
S11317501CE01348FFF700FDF8600F4B1B6F03F00C
S113176030031B091A46FB68D340FB600EE0FFF709
S11317706DFCF8600AE0FFF711FCF86006E0FFF783
S11317807BFDF86002E00023FB6000BFFB681846A5
S11317901437BD4690BD00BF00800C4002001A0003
S11317A003001C0080B485B000AF78600123FB7394
S11317B07B6803F00F03BB60BB68013B062B00F2A0
S11317C0938001A252F823F0E51700001B180000D3
S11317D057180000E9180000E918000093180000E9
S11317E0B5180000454BDB6A03F47053B3F5805F12
S11317F009D0B3F5005F03D0B3F5006F06D008E05D
S11318000223FB7308E00323FB7305E00423FB734B
S113181002E00523FB7300BF69E0384B9B6A03F0C9
S11318200303022B06D0032B07D0012B08D103237B
S1131830FB730FE00223FB730CE00623FB7309E048
S11318402E4B9B6A03F48033002B02D00923FB73D5
S113185000E000BF4BE0294B9B6A03F00C03082B0C
S113186006D00C2B07D0042B08D10323FB730FE005
S11318700223FB730CE00623FB7309E01F4B9B6AF6
S113188003F48013002B02D00923FB7300E000BF94
S11318902DE01A4B1B6803F08053002B03D0B3F1E7
S11318A0805F03D023E00723FB7302E00823FB736C
S11318B000BF1CE0114BDB6A03F46033B3F5803FD7
S11318C008D0B3F5003F08D0B3F5004F08D1082382
S11318D0FB7308E00223FB7305E00323FB7302E0C0
S11318E00123FB7300BF02E00023FB7300BFFB7BFB
S11318F018461437BD465DF8047B704700800C40E1
S113190090B589B000AF78600B46FB700323FB6190
S11319100323FB7600233B617B6803F00F03FB602A
S1131920FB68013B062B00F2348101A252F823F03C
S11319304D190000391A0000391A0000931B0000E9
S1131940931B0000011B00002B1B0000FB78023BD3
S1131950072B00F2228101A252F823F07D19000026
S11319608719000091190000DB1900009B1B00007F
S11319709B1B00009B1B00009B1B00000423FB61BE
S11319800023FB7639E00323FB610123FB7634E07B
S11319900223FB610223FB76FFF790FA03465C1CEB
S11319A0FFF78CFA034620461946FFF7C3FAFEF701
S11319B0C9FC02467C4B9A4206D97C4A7B4B1B6885
S11319C043F06003136018E0784A784B1B6823F0F7
S11319D0600343F0200313600FE00123FB61032342
S11319E0FB76FFF76BFA03465C1CFFF767FA0346C6
S11319F020461946FFF79EFA00BFFB7E18460121D8
S1131A00012200F0D9F8FFF79DFB684AFB69536295
S1131A106748FFF7DBFD0446FFF750FA034620460C
S1131A201946FFF787FA00F0E3FBFEF7E7FBB8601F
S1131A30B868FFF72BFBADE0FB78013B082B00F205
S1131A40AE8001A252F823F06D1A0000731A000050
S1131A50831A00009F1B00009F1B0000931A0000C4
S1131A609F1B00009F1B0000B71A000000237B612E
S1131A7026E000200121012200F09EF802237B6170
S1131A801EE001200121012200F096F801237B6170
S1131A9016E0FEF7B3FBB860FFF710FA0346B86828
S1131AA01946FFF747FA434804210122FFF7A2F938
S1131AB003237B6104E000237B6101233B6100BFBE
S1131AC0FB68022B0DD13949384B9B6A23F48033D0
S1131AD023F003037A691A433B691B0413438B62A3
S1131AE058E03249314B9B6A23F4801323F00C03F2
S1131AF07A6992001A433B691B0513438B6249E0E0
S1131B00FB78072B02D0082B07D049E0274A274B44
S1131B101B6823F08053136006E0244A234B1B68A0
S1131B2043F08053136000BF34E0FB78032B14D0E0
S1131B30082B22D0022B00D032E000200121012208
S1131B4000F03AF8194B40225A6200BF174BDB6A87
S1131B5003F48033002BF9D01AE001200121012283
S1131B6000F02AF8114B60225A6200BF0F4BDB6A67
S1131B7003F40033002BF9D00AE00C4B20225A6204
S1131B8000BF0A4BDB6A03F40043002BF9D000BF0B
S1131B9000E000BFFFF7ECF902E000BF00E000BF87
S1131BA02437BD4690BD00BF0048E80100800C40CA
S1131BB00043020040800C4080B586B000AF03466D
S1131BC0FB710B46BB7113467B71FB79042B4AD81E
S1131BD001A252F823F000BF251C0000171C0000CE
S1131BE0FB1B0000ED1B0000091C000001233B61EE
S1131BF00223FB6001237B611DE004233B61082376
S1131C00FB6003237B6116E010233B612023FB6010
S1131C1005237B610FE040233B618023FB600723A6
S1131C207B6108E04FF480733B614FF40073FB6009
S1131C3009237B6100BFBB79002B0ED00C4A3B69A2
S1131C4013627B79002B0BD000BF0A487969FFF738
S1131C50E7F80346002BF8D002E0054AFB6813625C
S1131C6000F0C6FA00E000BF1837BD4680BD00BFD3
S1131C7000800C402C800C4080B400AF72B6BD468E
S1131C805DF8047B704700BF80B400AF62B6BD4608
S1131C905DF8047B704700BF80B483B000AFEFF3FE
S1131CA010833B603B687B6072B67B6818460C37D8
S1131CB0BD465DF8047B704780B483B000AF7860A4
S1131CC07B68002B00D162B60C37BD465DF8047BFF
S1131CD0704700BF80B489B000AF786008461146F1
S1131CE01A460346FB700B46BB7013467B707B6839
S1131CF01A013C4B9B681344BB61BB78002B02D098
S1131D00BB69FB6105E07B681A01364BDB68134451
S1131D10FB61BB69DB687B617B69002B02D0BA780D
S1131D207B691A72FB6A002B14D0FB699B6803F071
S1131D3040639B0E3B613B69032B03D1FB69FA6A49
S1131D401A6007E03B693A6B9A40FB6A13441A46EF
S1131D50FB691A60BB6A002B12D0FB699B689B0F5E
S1131D603B613B69032B03D1FB69BA6A5A6007E004
S1131D703B693A6B9A40BB6A13441A46FB695A6042
S1131D807B68012202FA03F3FB607B78002B03D00B
S1131D90144AFB68936102E0124AFB68D361BB7882
S1131DA0002B03D00F4AFB68536302E00D4AFB6823
S1131DB01363FB699B6823F47F5323F03703BB60F1
S1131DC03B6B1B01BA681343BB60FB78BA681343CF
S1131DD0BB60FB69BA689A602437BD465DF8047B32
S1131DE0704700BF00200C4080B58AB000AF334B71
S1131DF003F580531B68BB61304B03F580530C33F0
S1131E001B68BA691340BB612C4B9B6B7B61BA693D
S1131E107B6913403B620023FB6149E000237B6242
S1131E203BE03B6A03F00103002B30D0234B9B685B
S1131E303B6101227B6A02FA03F3FB601F4B03F54B
S1131E4080530833FA681A607B6A1B013A691344A9
S1131E50DB68BB60BB68002B19D0BB681B7A7B6056
S1131E60BB681B7A83F00103DAB2BB681A72BB68E1
S1131E701B68002B0BD0BB681B68786A7A68002A41
S1131E8014BF01220022D1B2BA68526898473B6A53
S1131E905B083B627B6A01337B623B6A002BC0D1E7
S1131EA07B69DA43BB6913403B62FB690133FB6125
S1131EB0FB69012BB2DD2837BD4680BD00200C40F4
S1131EC090B589B004AFF8607B600B46FB72134693
S1131ED0BB72FA7ABC7A7B6800933B6A01937B6A93
S1131EE00293F86801212346FFF7F4FE044AFB68D5
S1131EF0012101FA03F393621437BD4690BD00BF7C
S1131F0000200C4080B500AFFEF778F980BD00BF1B
S1131F1080B400AF034B0022C3F88420BD465DF8B3
S1131F20047B704700800C4080B400AF044B45F63E
S1131F300E02C3F88420BD465DF8047B704700BFE1
S1131F4000800C4080B582B000AF384BD3F88430A9
S1131F5003F001037B60FFF7E7FF00233B60344B92
S1131F601B6803F001033A6813433B60304B1B6862
S1131F7003F010033A6813433B602D4B1B6803F0D6
S1131F8040033A6813433B60294B1B6803F0040386
S1131F903A6813433B60264B1B6803F480733A682A
S1131FA013433B60214A3B681362214B1B6803F4D3
S1131FB07053B3F5805F06D0B3F5005F0ED0B3F570
S1131FC0006F16D020E000BF184BDB6A03F08003DB
S1131FD0002BF9D0154B03225A6215E000BF134BB6
S1131FE0DB6A03F40073002BF9D0104B04225A620D
S1131FF00AE000BF0D4BDB6A03F00803002BF9D0A5
S11320000A4B02225A6200BF094B1B6803F001030A
S1132010002B02D1054B02221A627B68002B01D0EF
S1132020FFF776FF0837BD4680BD00BF00800C4037
S11320308C01002080B483B000AF164B1B699BB2A7
S113204003F03F039BB21B02FB80124B9B6903F01E
S1132050F0039AB2FB881343FB800E4BDB6903F059
S1132060F0031B099AB2FB881343FB80FB88B3F58A
S1132070827F03D3FB88B3F5017F01D1012300E004
S1132080002303F00103DBB218460C37BD465DF8AC
S1132090047B7047D0FF0FE080B586B000AF0346E5
S11320A0FB711F4BDB6A1F4A13601F4A1E4B1B69DF
S11320B043F004031361FFF7BDFF0346FB75FB7D8B
S11320C0002B11D0194B1A68194B1340FB60174AA7
S11320D0FB68C2F88030154B5B6823F046033B6114
S11320E0124A3B69C2F8843030BFFB7D002B05D017
S11320F00E4AFB6813600D4A3B695360FB79002B61
S113210002D0FFF71FFF07E0064B1B6803F4806350
S1132110002B01D1FFF7F6FE1837BD4680BD00BF86
S113212000800C408C01002000ED00E000E100E0A4
S11321309CF1FD0080B586B000AF0346FB71274BD0
S1132140DB6A274A1360254BD3F8843003F001037C
S11321507B61FFF7E9FE214B4FF420721A627B6921
S1132160002B01D0FFF7D4FE1E4A1E4B1B6943F01F
S113217004031361FFF75EFF0346FB74FB7C002B33
S113218011D0194B1A68194B1340BB60164ABB682F
S1132190C2F88030144B5B6823F04603FB60124A9C
S11321A0FB68C2F8843030BFFB7C002B05D00E4A9C
S11321B0BB6813600C4AFB685360FB79002B02D0A8
S11321C0FFF7C0FE07E0064B1B6803F48063002B97
S11321D001D1FFF797FE1837BD4680BD00800C4043
S11321E08C01002000ED00E000E100E09CF1FD0026
S11321F080B400AF034BDB6A034A1360BD465DF84D
S1132200047B704700800C408C01002080B487B0B0
S113221000AFF860B9607A60FB6803F10473DA0018
S1132220BB6813449B007B617B697A681A601C3726
S1132230BD465DF8047B704780B485B000AFF8609C
S1132240B9607A60FB681A68BB68DB431A407B6834
S11322501A43FB681A601437BD465DF8047B704767
S113226080B483B000AF03463960FB71FB79002B67
S11322700DD0FB79012B0AD0FB79022B07D0FB7917
S1132280032B04D0FB79042B01D0FB79052B0949DE
S1132290FA793B68012000FA03F318461346DB0081
S11322A013449B000B44103358600C37BD465DF853
S11322B0047B70470060004080B483B000AF0346E5
S11322C03960FB71FB79002B0DD0FB79012B0AD00F
S11322D0FB79022B07D0FB79032B04D0FB79042B69
S11322E001D0FB79052B0949FA793B68012000FAF2
S11322F003F318461346DB0013449B000B441033CE
S113230018600C37BD465DF8047B704700600040E0
S113231080B586B000AFB9607A601A460346FB7395
S11323201346BB73FB7B002B0DD0FB7B012B0AD028
S1132330FB7B022B07D0FB7B032B04D0FB7B042B02
S113234001D0FB7B052B7B68072B0ED87B689B0099
S11323501A46072303FA02F1FB7B7A689200934042
S113236019481A46FFF768FF10E07B68083B7B6159
S11323707B699B001A46072303FA02F1FB7B7A6907
S11323809200934011481A46FFF756FFBB7B104852
S113239079681A46FFF73AFF97F820300D487968B4
S11323A01A46FFF733FF0C4A7B68012101FA03F355
S11323B0C2F81C3197F82430084879681A46FFF7A8
S11323C025FF1837BD4680BD006100400461004010
S11323D0086100400C610040006000401061004052
S11323E090B585B000AFB9607B600346FB731346BC
S11323F0BB73FB7B002B0DD0FB7B012B0AD0FB7B3B
S1132400022B07D0FB7B032B04D0FB7B042B01D0D6
S1132410FB7B052BBB7B002B0DD07B68002B05D0F1
S1132420FB7B1846B968FFF747FF04E0FB7B1846BF
S1132430B968FFF715FFBB68072B1CD82A4CFA7B39
S11324402948F97B0B46DB000B449B0003445B6883
S1132450B968890008460F218140C9430B40B97B04
S1132460B8688000814019431346DB0013449B0085
S11324702344596024E01C4CFA7B1B48F97B0B462F
S1132480DB000B449B00034408331968BB6803F169
S11324908043083B9B0018460F238340DB431940CD
S11324A0B87BBB6803F18043083B9B0000FA03F34D
S11324B019431346DB0013449B002344083319607B
S11324C0BB7B002B0DD17B68002B05D0FB7B184612
S11324D0B968FFF7F1FE04E0FB7B1846B968FFF723
S11324E0BFFE1437BD4690BD0060004080B487B085
S11324F000AFF860B9607A60FB6803F10473DA0036
S1132500BB6813449B007B617B697A681A601C3743
S1132510BD465DF8047B704780B485B000AF786039
S11325207B68002B02D0012B04D007E0084B9B688A
S1132530FB6006E0064BDB68FB6002E00023FB6007
S113254000BFFB6818461437BD465DF8047B70472E
S11325500000084080B485B000AF786039607B68C3
S1132560012B05D83B6803F07F43002B00D100BF4B
S11325707B68002B02D0012B03D008E0064BFB60E4
S113258002E0064BFB6000BFFB683A681A60143730
S1132590BD465DF8047B7047080008400C00084005
S11325A080B582B000AF0346FB71FB79034800217C
S11325B01A46FFF79BFF0837BD4680BD0000084060
S11325C080B485B000AF78607B681B78002B02D0A4
S11325D00123FB6001E00023FB607B685B78002B38
S11325E003D0FB6843F00203FB607B689B78002BFD
S11325F003D0FB6843F00403FB60044AFB681360E8
S11326001437BD465DF8047B704700BF00000840E6
S113261080B500AF0020FFF7C3FF0120FFF7C0FF24
S113262080BD00BF80B485B000AF7860194B5B6992
S1132630DBB203F00F03DBB29B00FB73154B1B698A
S113264003F0C0039B09DAB2FB7B1343FB737B6883
S1132650FA7B9A700F4B1B69DBB203F03F03DAB2CB
S11326607B685A700B4B9B69DBB223F00F03FB733F
S1132670084BDB6903F0F0031B09DAB2FB7B13435D
S1132680FB737B68FA7B1A701437BD465DF8047BD4
S1132690704700BFD0FF0FE080B500AF184802219B
S11326A0FFF72EF917480221FFF72AF916480121EE
S11326B0FEF720FF15480121FEF71CFF14480121F5
S11326C0FEF718FF13480121FEF714FF12480121F9
S11326D0FEF710FF11480121FEF70CFF10480121FD
S11326E0FEF708FF0E480121FEF7ECFD0D4801211D
S11326F0FEF700FF0C480121FEF7FCFE80BD00BF81
S113270002001A0003001C000043020060261400AB
S113271000D2040000C204000092040000A20400DD
S113272060062A00000302007007160080B400AFA0
S1132730034B9B6A1846BD465DF8047B704700BF97
S113274000C0084080B483B000AF7860034A7B685F
S113275053640C37BD465DF8047B704700C00840E5
S113276080B483B000AF064BDB6C7B60044B1A6C07
S11327707B68134018460C37BD465DF8047B7047F0
S113278000C0084080B584B000AFFFF7E9FFB8602F
S1132790B868FFF7D7FFBB6803F48033002B23D05E
S11327A00823FB7316E0FFF7C1FF7860FB7B164933
S11327B07A6841F82320FB7B144A52F823207B6873
S11327C09A4204D2FB7B11497A6841F82320FB7BAF
S11327D00133FB73FB7B0B2BE5D90D4B1B68002BE3
S11327E002D00B4B1B689847BB6803F47463002B3F
S11327F007D0084B1B68002B03D0064B1B68B86836
S113280098471037BD4680BD900100200800002085
S1132810D0010020D401002080B400AF054A054B4C
S11328201B6923F00403136130BFBD465DF8047BCC
S1132830704700BF00ED00E080B582B000AF786063
S1132840FFF71AFA074A7B6813441B780133D9B29D
S1132850044A7B6813440A461A70FFF715FA0837CE
S1132860BD4680BDD801002080B500AF0F4B1B785A
S1132870002B00D019E00D4B5B78002B02D0FFF742
S1132880CBFF12E0094B9B78002B03D00120FFF70C
S113289003FC0AE0054BDB78002B03D00120FFF793
S11328A049FC02E00120FFF745FC80BDD80100206F
S11328B080B483B000AF03463960FB71FB79002B11
S11328C00DD0FB79012B0AD0FB79022B07D0FB79C1
S11328D0032B04D0FB79042B01D0FB79052B094988
S11328E0FA793B68012000FA03F318461346DB002B
S11328F013449B000B44103358600C37BD465DF8FD
S1132900047B70470060004080B483B000AF03468E
S11329103960FB71FB79002B0DD0FB79012B0AD0B8
S1132920FB79022B07D0FB79032B04D0FB79042B12
S113293001D0FB79052B0949FA793B68012000FA9B
S113294003F318461346DB0013449B000B44103377
S113295018600C37BD465DF8047B7047006000408A
S113296080B584B000AF78600220052108220123DD
S1132970FFF736FD0220042108220123FFF730FD72
S11329800023FB730AE002200521FFF791FF0220D8
S11329900521FFF7B9FFFB7B0133FB73FB7B082B9E
S11329A0F1D9786800F00CF8012000F0F7F8042061
S11329B000F034F900F074F91037BD4680BD00BF53
S11329C080B584B000AF78600023FB73104A7B6845
S11329D013600F4B1B6876225A770D4B1B681C3310
S11329E0D0201946012200F025FD0346002B01D01A
S11329F0FF23FB7300F00EF80346002B01D0FF23E6
S1132A00FB73FB7B5BB218461037BD4680BD00BF2D
S1132A10E401002080B588B000AF0023FB773B1DA4
S1132A2000221A60043300221A60043300221A6060
S1132A30043300221A60043300221A600433002293
S1132A401A60043300221A800233534B1B68002B94
S1132A5002D1FF23FB7799E03B1D882019461822F9
S1132A6000F0E8FC0346002B02D0FF23FB778DE047
S1132A70494B1B687A79120291B23A7992B20A43AD
S1132A8092B292B21A80444B1B68FA79D2B252B213
S1132A90120291B2BA7992B20A4392B25A803E4B70
S1132AA01B687A7AD2B252B2120291B23A7A92B2D4
S1132AB00A4392B29A80384B1B68FA7A120291B296
S1132AC0BA7A92B20A4392B292B2DA80324B1B685B
S1132AD07A7BD2B252B2120291B23A7B92B20A43D8
S1132AE092B21A812C4B1B68FA7BD2B252B21202F8
S1132AF091B2BA7B92B20A4392B25A81264B1B68B6
S1132B007A7CD2B252B2120291B23A7C92B20A43A5
S1132B1092B29A81204B1B68FA7CD2B252B2120252
S1132B2091B2BA7C92B20A4392B2DA811A4B1B6810
S1132B307A7DD2B252B2120291B23A7D92B20A4373
S1132B4092B21A82144B1B68FA7DD2B252B21202AC
S1132B5091B2BA7D92B20A4392B25A820E4B1B686A
S1132B607A7ED2B252B2120291B23A7E92B20A4341
S1132B7092B29A82084B1B68FA7ED2B252B2120207
S1132B8091B2BA7E92B20A4392B2DA82FB7F5BB20E
S1132B9018462037BD4680BDE401002080B584B0CE
S1132BA000AF0346FB710023FB730023BB731A4B76
S1132BB01B68002B02D1FF23FB7326E007F10E03F1
S1132BC0F4201946012200F035FC0346002B01D005
S1132BD0FF23FB73BB7BDBB203F01F03DAB2FB7989
S1132BE05B01DBB21343DBB2DBB2BB73BB7BF42010
S1132BF0194600F0DDFB0346002B02D0FF23FB73D4
S1132C0003E0054B1B68FA799A77FB7B5BB21846A5
S1132C101037BD4680BD00BFE401002080B584B0FC
S1132C2000AF0346FB710023FB730023BB731B4BF4
S1132C301B68002B02D1FF23FB7329E007F10E036D
S1132C40F4201946012200F0F5FB0346002B01D0C5
S1132C50FF23FB73BB7BDBB223F01C03DAB2FB79EB
S1132C609B00DBB203F01C03DBB21343DBB2DBB229
S1132C70BB73BB7BF420194600F09AFB0346002B80
S1132C8002D0FF23FB7303E0044B1B68FA79DA7765
S1132C90FB7B5BB218461037BD4680BDE4010020C3
S1132CA090B585B002AF0023FB710023BB710023F4
S1132CB07B711B4B1B68002B02D1FF23FB7128E0A7
S1132CC0174B1B689B7F5B01DAB2154B1B68DB7FDC
S1132CD09B00DBB21344DBB20133BB71BB79F4203C
S1132CE0194600F065FB0346002B02D0FF23FB715D
S1132CF00FE07B1D184600F019F80A4B1A687B791F
S1132D001C4600230093104600212246064BFDF783
S1132D1063FCFB795BB218460C37BD4690BD00BF1F
S1132D20E40100209C0300200535000080B485B038
S1132D3000AF78600023FB73174B1B689B7F1A4618
S1132D40012393405A10144B1B68DB7F194601235F
S1132D508B405B101A441346DB0013449B0013445E
S1132D6003F114020C4B1B68DB7F002B01D00A23F8
S1132D7000E0002313440F33002B00DA0F331B1140
S1132D80DAB27B681A70FB7B5BB218461437BD4617
S1132D905DF8047B704700BFE401002080B584B077
S1132DA000AF786039600023FB730023BB6000230D
S1132DB0BB81194B1B68002B02D1FF23FB7324E05A
S1132DC007F10803F7201946062200F033FB0346F7
S1132DD0002B02D0FF23FB7317E03B7A1A037B7AA4
S1132DE01B011343BA7A1209D2B213431A467B6801
S1132DF01A60FB7A1A033B7B1B0113437A7B12098B
S1132E00D2B213431A463B681A60FB7B5BB2184686
S1132E101037BD4680BD00BFE40100202DE9B0435A
S1132E2088B000AF78604FF000024FF00003C7E9AC
S1132E3006234FF000024FF00003C7E904234FF0CC
S1132E4000024FF00003C7E90223786800F09EFFF8
S1132E5002460B46104619464FF00002634B01F040
S1132E6025F902460B4614461D46614B1B681B8818
S1132E70184600F07BFF02460B46104619464FF0F9
S1132E8000025C4B01F012F902460B46204629462B
S1132E9000F02EFE02460B4614461D46544B1B689A
S1132EA05B881BB2184600F071FF02460B462046B1
S1132EB0294600F0D1FF02460B46C7E9062378688D
S1132EC000F064FF02460B46104619464FF000021C
S1132ED04FF0824301F0EAF802460B4614461D46C1
S1132EE0434B1B681B88184600F040FF02460B4604
S1132EF0104619464FF000023F4B01F0D7F8024646
S1132F000B462046294600F0F3FD02460B461446C4
S1132F101D46786800F03AFF02460B4610461946F3
S1132F204FF000024FF0824301F0C0F802460B4616
S1132F30904699462E4B1B681B88184600F016FFD6
S1132F4002460B46104619464FF000022A4B01F088
S1132F50ADF802460B464046494600F0C9FD02461C
S1132F600B462046294600F077FF02460B461446DE
S1132F701D461F4B1B689B881BB2184600F006FFBA
S1132F8002460B462046294600F066FF02460B46E1
S1132F90C7E90423164B1C68D7E90601D7E90423C3
S1132FA000F0A8FD02460B461046194601F0EEF962
S1132FB00346A361D7E90601D7E9042300F09AFD8B
S1132FC002460B46104619464FF000020B4B01F027
S1132FD06DF802460B46C7E90223D7E902231046DF
S1132FE019462037BD46BDE8B08300BF0000D0407D
S1132FF0E4010020000090400000C0400000B44004
S1133000B0B588B000AF78604FF000024FF0000315
S1133010C7E906234FF000024FF00003C7E9042379
S11330204FF000024FF00003C7E902237F4B1B68F7
S11330309B69184600F0AAFE02460B461046194644
S11330404FF000024FF0804301F030F802460B4687
S1133050104619464FF00002754B00F049FD024638
S11330600B46C7E90623D7E90601D7E9062300F092
S1133070F3FE02460B4614461D466C4B1B681B8A26
S11330801BB2184600F082FE02460B462046294633
S113309000F0E2FE02460B46104619464FF00002CD
S11330A0644B01F003F802460B46C7E904235F4B67
S11330B01B68DB891BB2184600F068FE02460B460B
S11330C010461946D7E9062300F0C6FE02460B4611
S11330D01046194600F00EFD02460B46D7E90401DE
S11330E000F008FD02460B46C7E90423D7E90401B2
S11330F04FF00002504B00F0D9FF02460B46144635
S11331001D464A4B1B689B891BB2184600F03EFEC5
S113311002460B46104619464FF00002474B00F09A
S11331209BFE02460B462046294600F0E3FC02467D
S11331300B46C7E904233D4B1B685B891BB2184649
S113314000F024FE02460B4610461946D7E9062332
S113315000F082FE02460B4610461946D7E90623C4
S113316000F07AFE02460B46104619464FF0000264
S1133170334B00F09BFF02460B4614461D462B4B77
S11331801B681B891BB2184600F000FE02460B4662
S113319010461946D7E9062300F05EFE02460B46A8
S11331A02046294600F0A6FC02460B461046194666
S11331B04FF00002224B00F079FF02460B46C7E9AC
S11331C00623D7E906014FF000021A4B00F06EFF08
S11331D002460B46104619464FF00002194B00F008
S11331E089FC02460B4614461D46104B1B68DB88BF
S11331F0184600F0BBFD02460B462046294600F067
S11332002BFE02460B46C7E90623D7E906014FF019
S113321000024FF0000301F087F80346002B13D09F
S11332204FF000024FF00003AAE000BFE4010020C9
S11332300040EF400000E040000010400000F0407B
S1133240000020410000F03F786800F09FFD024636
S11332500B464FF00000504900F04AFC02460B4672
S1133260C7E90223D7E904014FF000024B4B00F0F9
S11332701DFF02460B46D7E9020100F039FC024665
S11332800B461046194642A3D3E9002300F0E4FD9F
S113329002460B4610461946D7E9062300F006FFFE
S11332A002460B46C7E902233D4B1B68DB8A1BB26F
S11332B0184600F06BFD02460B4610461946D7E946
S11332C0022300F0C9FD02460B4610461946D7E911
S11332D0022300F0C1FD02460B46104619464FF08A
S11332E00002304B00F0E2FE02460B46C7E906231B
S11332F02B4B1B689B8A1BB2184600F047FD024605
S11333000B4610461946D7E9022300F0A5FD0246F4
S11333100B46104619464FF00002234B00F0C6FE40
S113332002460B46C7E90423D7E90601D7E904237B
S113333000F0E0FB02460B4614461D46184B1B6882
S11333405B8A1BB2184600F021FD02460B4620465C
S1133350294600F0CFFB02460B46104619464FF0B3
S11333600002124B00F0A2FE02460B46D7E902010E
S113337000F0C0FB02460B46C7E90223D7E902234B
S1133380104619462037BD46B0BD00BFAFF30080DC
S113339000000000006AB840000030410000B04066
S11333A0E40100200000E0410000E0400000304063
S11333B080B485B000AF03460A46FB711346BB7167
S11333C00023FB731A4BEC225A62194B01225A60F8
S11333D000BF174B9B6A03F04003002BF9D0144B3A
S11333E040221A63124AFB79536200BF104B9B6A56
S11333F003F04003002BF9D00D4B40221A630C4A12
S1133400BB79536200BF0A4B9B6A03F04003002B55
S1133410F9D0074B40221A63054B02225A60FB7B0A
S11334205BB218461437BD465DF8047B704700BF95
S113343000A4004080B485B000AF03463960FB713E
S11334401346BB710023BB732D4BEC225A622C4BE9
S113345001225A6000BF2A4B9B6A03F04003002BF1
S1133460F9D0274B40221A63254AFB79536200BFE7
S1133470234B9B6A03F04003002BF9D0204B4022DE
S11334801A631F4B01225A601D4BED225A6200BF82
S11334901B4B9B6A03F04003002BF9D0184B4022CE
S11334A01A630023FB7318E000BF154BDB6803F4B9
S11334B08073002BF9D0FB7B3A681344104AD2691D
S11334C0D2B21A70FA7BBB79013B9A4202D00C4B00
S11334D004225A60FB7B0133FB73FA7BBB799A426B
S11334E0E2D3074B08225A60054B02225A60BB7B89
S11334F05BB218461437BD465DF8047B704700BFC5
S113350000A4004080B588B000AF786007F11C02C9
S113351007F1180310461946FFF740FCBB6918462B
S1133520FFF77CFC02460B46C7E90223FB691846F9
S1133530FFF766FD02460B46C7E90423032000217A
S1133540FFF7B6F907F108034120194600F0B2F974
S113355007F110034220194600F0ACF92037BD46AC
S113356080BD00BF80B500AF0420022104220023E7
S1133570FEF736FF0420032104220023FEF730FF68
S113358080BD00BF80B483B000AF0346FB7108491F
S113359097F907305B09FA7902F01F02012000FA5B
S11335A002F241F823200C37BD465DF8047B7047D6
S11335B000E100E080B483B000AF0346FB71094929
S11335C097F907305B09FA7902F01F02012000FA2B
S11335D002F2603341F823200C37BD465DF8047BCA
S11335E0704700BF00E100E080B483B000AF7860B2
S11335F0044A7B68C2F81C310C37BD465DF8047B75
S1133600704700BF0060004090B585B002AF3960DC
S113361011461A460346FB710B46BB7113467B7178
S1133620FA79BC797B7900933B7E01931046396823
S11336303A682346FEF76CFE0C37BD4690BD00BFCA
S113364080B582B002AF0C48FCF730FF03200121A3
S113365001220023FEF7C4FE01230093032001216D
S113366001220023FFF7D0FF0B20FFF7A3FF0B205D
S1133670FFF788FFBD4680BDE801002080B582B019
S113368002AFFEF7F9FA0E4B1B7883F00103DBB2AD
S1133690002B02D00A4B01221A700A4B1A6800232D
S11336A000931046002144F62062074BFCF794FF78
S11336B00220FFF799FFFEF7E7FABD4680BD00BF81
S11336C0DB010020E8010020CD36000080B483B087
S11336D000AF7860034B00221A700C37BD465DF8CA
S11336E0047B7047DB01002080B584B002AF234B1C
S11336F001221A70224B1B680133214A1360204BAC
S11337001968204BA3FB01231A0913469B00134499
S11337109B00CA1A1A4B1A60194B1A6813469B006D
S113372013449B00184A1344184601F091F9786039
S1133730134B1A6813469B0013449B00124A13440C
S11337403B60124A114B1B6843F400531360104A48
S11337500F4B5B6843F0010353600220FFF76CF8E2
S11337607B68013B3A680092019301200121002209
S1133770084BFEF7A5FB0837BD4680BDDC010020E1
S11337804C000020CDCCCCCCEC0100200040084003
S113379000200C4028400840F0B585B000AFB96067
S11337A07A603B600346FB73FB7B413B032B7BD876
S11337B001A252F823F000BFC937000035380000D9
S11337C079380000913800007B6841221A707B68C8
S11337D05C1CBB68D3E900231046194600F0FEFDCB
S11337E00346DBB223707B689E1CBB68D3E90045AB
S11337F07B6801331B78184600F0C8FA02460B4672
S11338002046294600F074F902460B461046194634
S11338104FF00002264B00F01FFB02460B461046F9
S1133820194600F0DBFD0346DBB233703B6803222C
S11338301A703AE07B6842221A707B680133BA68D6
S11338401268D2B21A707B680233BA681268120A1C
S1133850D2B21A707B680333BA681268120CD2B2FF
S11338601A707B680433BA681268120ED2B21A70E6
S11338703B6805221A7018E07B68C3221A707B68C3
S11338800133BA6812781A703B6802221A700CE08D
S11338907B68C4221A707B680133BA6812781A7084
S11338A03B6802221A7000E000BF1437BD46F0BD29
S11338B00000594090B589B000AF03463960FB71F0
S11338C007F10C0300221A60043300221A60043347
S11338D000221A60043300221A60043300221A60A2
S11338E00433FEF7C9F9F97907F10C0207F10B0368
S11338F008463968FFF750FF1E4B1B6801331D4A09
S113390013601C4B19681C4BA3FB01231A091346B3
S11339109B0013449B00CA1A164B1A60154B1A6875
S113392013469B0013449B00144A1344184614493D
S1133930142201F095F80F4B1A6813469B001344A8
S11339409B000E4A1A44FB7A1C4607F10C031046EE
S11339501946224601F084F80A4B1B7883F00103D0
S1133960DBB2002B01D0FFF7BFFEFEF78DF9243741
S1133970BD4690BD48000020CDCCCCCCEC0100204D
S1133980A44A0000DC01002080B483B000AF0346E9
S11339903960FB71FB79002B0DD0FB79012B0AD028
S11339A0FB79022B07D0FB79032B04D0FB79042B82
S11339B001D0FB79052B0949FA793B68012000FA0B
S11339C003F318461346DB0013449B000B441033E7
S11339D018600C37BD465DF8047B704700600040FA
S11339E080B483B000AF786039607B683A689A62CB
S11339F00C37BD465DF8047B704700BF80B483B0CC
S1133A0000AF78607B681B6A18460C37BD465DF8CA
S1133A10047B704780B500AFFCF78EFDFEF73CFEDB
S1133A20FFF70EFEFFF79EFD0220FEF705FF80BDA7
S1133A3080B582B000AFFEF71FF90F48FFF7DEFF35
S1133A4078600D487968FFF7CBFF7B6803F00103CA
S1133A50002B04D003200021FFF796FF07E07B68CA
S1133A6003F00203002B02D00448FEF779FFFEF7AF
S1133A700BF90837BD4680BD002008407C030020B8
S1133A8080B582B000AF0C4B1B687B603B46184688
S1133A90FEF7C8FD7B681B0E0F2B0AD93B78032B5E
S1133AA007D1064A054B1B6823F0500343F010036B
S1133AB013600837BD4680BDFC81E00FC0800C4018
S1133AC080B582B000AF06A3D3E90023C7E9002381
S1133AD0FFF7D6FFFFF79EFFFEF7C6FEFCE700BF29
S1133AE0B81E85EB5138324081F0004102E000BF3E
S1133AF083F0004330B54FEA41044FEA430594EAAA
S1133B00050F08BF90EA020F1FBF54EA000C55EAE4
S1133B10020C7FEA645C7FEA655C00F0E2804FEAB5
S1133B205454D4EB5555B8BF6D420CDD2C4480EA97
S1133B30020281EA030382EA000083EA010180EAC7
S1133B40020281EA0303362D88BF30BD11F0004F15
S1133B504FEA01314FF4801C4CEA113102D040424B
S1133B6061EB410113F0004F4FEA03334CEA133386
S1133B7002D0524263EB430394EA050F00F0A7809E
S1133B80A4F10104D5F1200E0DDB02FA0EFC22FA99
S1133B9005F2801841F1000103FA0EF2801843FA8D
S1133BA005F359410EE0A5F120050EF1200E012A7E
S1133BB003FA0EFC28BF4CF0020C43FA05F3C018BC
S1133BC051EBE37101F0004507D54FF0000EDCF135
S1133BD0000C7EEB00006EEB0101B1F5801F1BD3DE
S1133BE0B1F5001F0CD349085FEA30004FEA3C0CE2
S1133BF004F101044FEA445212F5800F80F09A80D8
S1133C00BCF1004F08BF5FEA500C50F1000041EBDB
S1133C10045141EA050130BD5FEA4C0C404141EBDF
S1133C20010111F4801FA4F10104E9D191F0000F06
S1133C3004BF01460020B1FA81F308BF2033A3F189
S1133C400B03B3F120020CDA0C3208DD02F1140C80
S1133C50C2F10C0201FA0CF021FA02F10CE002F1BB
S1133C601402D8BFC2F1200C01FA02F120FA0CFCB4
S1133C70DCBF41EA0C019040E41AA2BF01EB0451FD
S1133C80294330BD6FEA04041F3C1CDA0C340EDCFB
S1133C9004F11404C4F1200220FA04F001FA02F33E
S1133CA040EA030021FA04F345EA030130BDC4F1FC
S1133CB00C04C4F1200220FA02F001FA04F340EAF1
S1133CC00300294630BD21FA04F0294630BD94F0A2
S1133CD0000F83F4801306BF81F480110134013D89
S1133CE04EE77FEA645C18BF7FEA655C29D094EAFA
S1133CF0050F08BF90EA020F05D054EA000C04BF78
S1133D001946104630BD91EA030F1EBF0021002062
S1133D1030BD5FEA545C05D14000494128BF41F001
S1133D20004130BD14F580043CBF01F5801130BD65
S1133D3001F0004545F0FE4141F470014FF00000F0
S1133D4030BD7FEA645C1ABF194610467FEA655CA1
S1133D501CBF0B46024650EA013406BF52EA033543
S1133D6091EA030F41F4002130BD00BF90F0000F31
S1133D7004BF0021704730B54FF4806404F132046D
S1133D804FF000054FF0000150E700BF90F0000F26
S1133D9004BF0021704730B54FF4806404F132044D
S1133DA010F0004548BF40424FF000013EE700BF1D
S1133DB042004FEAE2014FEA31014FEA02701FBFAD
S1133DC012F07F4393F07F4F81F06051704792F07F
S1133DD0000F14BF93F07F4F704730B54FF46074F9
S1133DE001F0004521F0004120E700BF50EA010244
S1133DF008BF704730B54FF000050AE050EA0102F1
S1133E0008BF704730B511F0004502D5404261EB60
S1133E1041014FF4806404F132045FEA915C3FF4A1
S1133E20DCAE4FF003025FEADC0C18BF03325FEA3A
S1133E30DC0C18BF033202EBDC02C2F1200300FAEF
S1133E4003FC20FA02F001FA03FE40EA0E0021FA14
S1133E5002F11444C1E600BF70B54FF0FF0C4CF4FE
S1133E60E06C1CEA11541DBF1CEA135594EA0C0FB4
S1133E7095EA0C0F00F0DEF82C4481EA030621EAEF
S1133E804C5123EA4C5350EA013518BF52EA03352A
S1133E9041F4801143F4801338D0A0FB02CE4FF0DC
S1133EA00005E1FB02E506F00042E0FB03E54FF00C
S1133EB00006E1FB03569CF0000F18BF4EF0010E04
S1133EC0A4F1FF04B6F5007F64F5407404D25FEA00
S1133ED04E0E6D4146EB060642EAC62141EA5551B3
S1133EE04FEAC52040EA5E504FEACE2EB4F1FD0CF5
S1133EF088BFBCF5E06F1ED8BEF1004F08BF5FEA73
S1133F00500E50F1000041EB045170BD06F0004624
S1133F1046EA010140EA020081EA0301B4EB5C04D1
S1133F20C2BFD4EB0C0541EA045170BD41F48011C9
S1133F304FF0000E013C00F3AB8014F1360FDEBFEE
S1133F40002001F0004170BDC4F10004203C35DACA
S1133F500C341BDC04F11404C4F1200500FA05F34D
S1133F6020FA04F001FA05F240EA020001F00042EE
S1133F7021F0004110EBD37021FA04F642EB060164
S1133F805EEA430E08BF20EAD37070BDC4F10C048E
S1133F90C4F1200500FA04F320FA05F001FA04F252
S1133FA040EA020001F0004110EBD37041F100013E
S1133FB05EEA430E08BF20EAD37070BDC4F1200549
S1133FC000FA05F24EEA020E20FA04F301FA05F2B1
S1133FD043EA020321FA04F001F0004121FA04F259
S1133FE020EA020000EBD3705EEA430E08BF20EA29
S1133FF0D37070BD94F0000F0FD101F00046400063
S113400041EB010111F4801F08BF013CF7D041EAE4
S1134010060195F0000F18BF704703F000465200E8
S113402043EB030313F4801F08BF013DF7D043EAB9
S11340300603704794EA0C0F0CEA135518BF95EA6F
S11340400C0F0CD050EA410618BF52EA4306D1D1F6
S113405081EA030101F000414FF0000070BD50EA15
S1134060410606BF1046194652EA430619D094EA9F
S11340700C0F02D150EA013613D195EA0C0F05D189
S113408052EA03361CBF104619460AD181EA0301DD
S113409001F0004141F0FE4141F470014FF0000095
S11340A070BD41F0FE4141F4780170BD70B54FF030
S11340B0FF0C4CF4E06C1CEA11541DBF1CEA1355B0
S11340C094EA0C0F95EA0C0F00F0A7F8A4EB050492
S11340D081EA030E52EA03354FEA013100F0888089
S11340E04FEA03334FF0805545EA131343EA126352
S11340F04FEA022245EA111545EA10654FEA002607
S11341000EF000419D4208BF964244F1FD0404F5BF
S1134110407402D25B084FEA3202B61A65EB03051B
S11341205B084FEA32024FF480104FF4002CB6EBD8
S1134130020E75EB030E22BFB61A754640EA0C0058
S11341405B084FEA3202B6EB020E75EB030E22BF98
S1134150B61A754640EA5C005B084FEA3202B6EBD9
S1134160020E75EB030E22BFB61A754640EA9C0098
S11341705B084FEA3202B6EB020E75EB030E22BF68
S1134180B61A754640EADC0055EA060E18D04FEA26
S1134190051545EA16754FEA06164FEAC30343EAC6
S11341A052734FEAC2025FEA1C1CC0D111F4801F93
S11341B00BD141EA00014FF000004FF0004CB6E78C
S11341C011F4801F04BF01430020B4F1FD0C88BF2B
S11341D0BCF5E06F3FF6AFAEB5EB030C04BFB6EB36
S11341E0020C5FEA500C50F1000041EB045170BD29
S11341F00EF0004E4EEA113114EB5C04C2BFD4EB56
S11342000C0541EA045170BD41F480114FF0000ED9
S1134210013C90E645EA060E8DE60CEA135594EA55
S11342200C0F08BF95EA0C0F3FF43BAF94EA0C0F58
S11342300AD150EA01347FF434AF95EA0C0F7FF4CD
S113424025AF104619462CE795EA0C0F06D152EA21
S113425003353FF4FDAE1046194622E750EA410605
S113426018BF52EA43067FF4C5AE50EA41047FF416
S11342700DAF52EA43057FF4EBAE12E74FF0FF3C7B
S113428006E000BF4FF0010C02E000BF4FF0010C4C
S11342904DF804CD4FEA410C7FEA6C5C4FEA430CC5
S11342A018BF7FEA6C5C1BD001B050EA410C0CBF14
S11342B052EA430C91EA030F02BF90EA020F002076
S11342C0704710F1000F91EA030F58BF994208BFDD
S11342D090422CBFD8176FEAE37040F0010070479A
S11342E04FEA410C7FEA6C5C02D150EA013C07D1F1
S11342F04FEA430C7FEA6C5CD6D152EA033CD3D03C
S11343005DF8040B704700BF8446104662468C4635
S11343101946634600E000BF01B5FFF7B7FF002868
S113432048BF10F1000F01BD4DF808EDFFF7F4FF91
S11343300CBF012000205DF808FB00BF4DF808ED1C
S1134340FFF7EAFF34BF012000205DF808FB00BF3F
S11343504DF808EDFFF7E0FF94BF012000205DF861
S113436008FB00BF4DF808EDFFF7CEFF94BF012016
S113437000205DF808FB00BF4DF808EDFFF7C4FF0F
S113438034BF012000205DF808FB00BF4FEA410262
S113439012F5001215D211D56FF47873B3EB625293
S11343A012D94FEAC12343F0004343EA505311F0BA
S11343B0004F23FA02F018BF404270474FF000004C
S11343C0704750EA013005D111F0004008BF6FF08A
S11343D0004070474FF00000704700BF4A0011D200
S11343E012F5001211D20DD56FF47873B3EB62524B
S11343F00ED44FEAC12343F0004343EA505323FA57
S113440002F070474FF00000704750EA013002D1CB
S11344104FF0FF3070474FF00000704753B94AB96E
S1134420002908BF00281CBF4FF0FF314FF0FF30B8
S113443000F03CB882B0EC462DE9005000F01EF8C4
S1134440DDF804E002B00CBC704700BF2DE9F04178
S1134450069C904606460F461D4600F029F808FBC8
S113446001FCA8FB002300FB05C5B21A2B4467EB33
S113447003038646C4E90023BDE8F0812DE9F8432F
S1134480089E1746804689461D4600F067F900FBE2
S113449005F3A0FB074507FB0137B8EB04043D44D3
S11344A069EB0505C6E90045BDE8F883704700BF20
S11344B000292DE9F043C0F2A8800026002BC0F2A9
S11344C09E8081468E4690469C46174604460D467D
S11344D0002B3DD18A4259D9B2FA82F33BB1C3F1E0
S11344E020029D4020FA02F29F4015439C40390C63
S11344F0B5FBF1F01FFA87FE01FB10550EFB00F32C
S1134500220C42EA0545AB4209D9ED1900F1FF320C
S113451080F00B81AB4240F2088102383D44ED1A31
S1134520B5FBF1F301FB13550EFB03FEA4B244EA01
S11345300545AE4508D9ED1903F1FF3280F0F78047
S1134540AE4540F2F480023B43EA0043002203E01C
S11345508B420FD900221346341C18BF0124604239
S11345604FF0000565EB4501584051400019694181
S1134570BDE8F083B3FA83F2002A40F089808B42CD
S113458002D3804500F2E2800123E5E712B901235A
S1134590B3FBF2F7B7FA87F8B8F1000F3BD1ED1B84
S11345A04FEA174C1FFA87FE0122B5FBFCF00CFB07
S11345B010550EFB00F3210C41EA0545AB4207D927
S11345C0ED1900F1FF3102D2AB4200F2C38008467C
S11345D0ED1AB5FBFCF30CFB13550EFB03FEA4B262
S11345E044EA0545AE4507D9ED1903F1FF3102D27E
S11345F0AE4500F2AD800B4643EA0043ACE75242BD
S11346006FEA060663EB43035BE7404261EB41015B
S11346104FF0FF3652E707FA08F7C8F1200225FAEF
S113462002F34FEA174CB3FBFCF11FFA87FE0CFBB5
S1134630113324FA02F205FA08F50EFB01F92A43B4
S1134640100C40EA0343994504FA08F407D9DB192E
S113465001F1FF3078D2994576D902393B44C9EB50
S11346600303B3FBFCF00CFB10330EFB00F592B21A
S113467042EA03439D4207D9DB1900F1FF325FD2BE
S11346809D425DD902383B445D1B40EA01428CE700
S1134690C2F1200328FA03F10CFA02FC41EA0C0CE3
S11346A04FEA1C402EFA03F1B1FBF0F51FFA8CF728
S11346B000FB151129FA03F30EFA02FE07FB05F9B4
S11346C043EA0E0E4FEA1E4343EA0141894508FAC4
S11346D002F808D911EB0C0105F1FF3332D28945F8
S11346E030D9023D6144C9EB0101B1FBF0F300FB99
S11346F0131107FB03F71FFA8EFE4EEA014E7745AE
S113470008D91EEB0C0E03F1FF3117D2774515D9EA
S1134710023BE64443EA0543A3FB0889C7EB0E0EBC
S1134720CE4509D305D0002216E71046F7E6134616
S11347300AE794404445F6D2013BF4E70B46E9E727
S11347401046A1E71D46CEE7014688E7134603E776
S1134750023B51E702383D443AE700BF2DE9F043FC
S1134760002B44D18A42154604464FD9B2FA82F747
S11347700E464FB1C7F12003B94020FA03F602FAFE
S113478007F50E4300FA07F42F0CB6FBF7F01FFAF7
S113479085FE07FB10620EFB00F1260C46EA02437D
S11347A0994209D95B1900F1FF3280F0EE809942F9
S11347B040F2EB8002382B44591AB1FBF7F307FBA4
S11347C013110EFB03FEA4B244EA01418E4508D93D
S11347D0491903F1FF3280F0DA808E4540F2D78028
S11347E0023B43EA004000263146BDE8F0838B4299
S11347F047D8B3FA83F6002E48D18B4202D38242C3
S113480000F2CF8001203146BDE8F08312B90125C2
S1134810B5FBF2F5B5FA85FCBCF1000F78D1491B64
S11348202F0C1FFA85FE0126B1FBF7F007FB1011D0
S11348300EFB00F2230C43EA01418A4207D94919CD
S113484000F1FF3302D28A4200F2BC801846891A72
S1134850B1FBF7F307FB13110EFB03FEA4B244EA0A
S11348600142964508D9521903F1FF3180F0918035
S1134870964540F28E80023B43EA00403146BDE853
S1134880F083002630463146BDE8F083C6F12004AB
S113489022FA04F5B3402B4321FA04F74FEA1348F4
S11348A0B7FBF8FC1FFA83F908FB1C7720FA04FE17
S11348B001FA06F509FB0CF44EEA05054FEA154E1C
S11348C04EEA0747BC4202FA06F204D9FF180CF17B
S11348D0FF3168D38C463F1BB7FBF8F408FB147711
S11348E009FB04F9ADB245EA0741894504D9C91861
S11348F004F1FF355DD32C4644EA0C44A4FB0223A7
S1134900C9EB0101994249D345D0204600266BE703
S1134910CCF1200405FA0CF521FA04F32A0CB3FBBC
S1134920F2F61FFA85FE02FB163820FA04F701FAA4
S11349300CF10EFB06F90F433C0C44EA084399457D
S113494000FA0CF407D95B1906F1FF3138D2994506
S113495036D9023E2B44C9EB0303B3FBF2F002FB4E
S113496010330EFB00F1BFB247EA0343994207D963
S11349705B1900F1FF3721D299421FD902382B4429
S11349801746591A40EA06464EE7104614E71346FE
S113499027E70B4670E7B0409042B6D2601E00266F
S11349A022E7304620E7BC4294D9ACF1020C1F4404
S11349B091E789459FD9023C19449DE73846DFE7D2
S11349C00E46C8E70238294441E700BF08B5074B43
S11349D0044613B10021AFF30080054B1868836AC5
S11349E003B19847204600F04DF800BF00000000D6
S11349F0A84A00000E4B70B51E460E4C0025E41A62
S1134A00A410A54204D056F8253098470135F8E79C
S1134A1000F03AF8084B094C1E46E41AA41000258D
S1134A20A54204D056F8253098470135F8E770BD03
S1134A30B0000020B0000020B0000020B40000202E
S1134A4003460244934202D003F8011BFAE770477D
S1134A50034613F8012B002AFBD1181A01387047BA
S1134A60034610B532B111F8014B013A03F8014B7A
S1134A70002CF7D11A44934203D0002103F8011B00
S1134A80F9E710BDFEE700BFF8B500BFF8BC08BCED
S1134A909E467047F8B500BFF8BC08BC9E467047F8
S1134AA0010000000043000050000020000000004E
S10B4AB08CB6FF7F0100000039
S1134AB8006CDC020080000001000000010000001E
S1134AC801000000010000000100000001000000D6
S1134AD801000000010000000100000001000000C6
S1134AE801000000010000000100000001000000B6
S1134AF80100000001000000130000001300000082
S1134B080000000000000000000000000000000099
S1134B180000000000000000000000000000000089
S1134B28A54A00000000000000000000000000008A
S1134B380000000000000000000000000000000069
S1134B480000000000000000000000000000000059
S1134B580000000000000000000000000000000049
S10F4B6805010000E10000000000000056
S90301B14A
